:100000000080001055330000853300008733000066
:10001000893300008B3300008D33000000000000A6
:10002000000000000000000000000000291E000089
:100030009133000000000000971E0000CF1E00005A
:100040009733000097330000973300009733000088
:100050009733000097330000973300009733000078
:100060009733000097330000973300009733000068
:100070009733000097330000973300009733000058
:100080009733000097330000973300009733000048
:100090009733000097330000973300009733000038
:1000A0009733000097330000973300009733000028
:1000B0009733000097330000973300009733000018
:1000C00097330000973300009733000010B5054CBC
:1000D000237833B9044B13B10448AFF300800123F4
:1000E000237010BD100200100000000070C300005B
:1000F00008B5064B1BB106480649AFF30080064819
:10010000036813B1054B03B1984708BD0000000018
:1001100070C3000014020010100200100000000064
:10012000154B002B08BF134B9D46A3F5803A0021C9
:100130008B460F461348144A121A05F006FB0F4B64
:10014000002B00D098470E4B002B00D09847002082
:10015000002104000D000D48002802D00C4804F0D6
:1001600006FF05F02FFA2000290003F0B9F804F08B
:100170001BFF00BF0000080000800010000000000E
:10018000DD2A0000100200104C1100106F4F00001B
:1001900085530000014B0360704700BFC0B10000F1
:1001A000014B0360704700BF48B6000010B5034B19
:1001B0000446036004F03CFC204610BDC0B10000C2
:1001C000024B002202481A7003F0F8BE920200109F
:1001D000F802001010B5054B0446036003F0EEFE74
:1001E000204603F00BFF204610BD00BF10B70000F3
:1001F00010B50446FFF7EEFF204604F019FC204638
:1002000010BD0000074B10B503F1180203604C331A
:1002100004468264C364483003F058FE024B204613
:10022000236010BDB0B60000C0B10000A0F14C00CA
:10023000FFF7E8BFA0F14800FFF7E4BF10B50446A0
:10024000FFF7E0FF204604F0F3FB204610BDA0F1CD
:100250004C00F3E7A0F14800F0E7B0F1804F38B56B
:1002600001D304F028FC8400204604F0CDFB0021DB
:100270000546224605F069FA284638BDB0F1804FA0
:1002800038B501D304F017FC8400204604F0BCFB11
:1002900000210546224605F058FA284638BD0000E0
:1002A00010B5044603F0C4FE044A204640F8142B5F
:1002B000002103F04DFD204610BD00BF10B7000027
:1002C00037B504460A461348214601F070FC12492E
:1002D0000246086849686B460A2A03C302D8A2F19D
:1002E0000A0015E00021CBB2901E8342F7DA072BFB
:1002F00007D802AD1D44E05C15F8083C984204D0D4
:1003000005E0E05C234403F8080C0131EBE7002032
:1003100003B030BD2C020010C8B1000010B5144865
:100320000A21FFF7CDFF0028F9DD124C1920E36800
:1003300062681A6004F01AF8236962680E4C1A6049
:100340000B490E4805F0B4FA09480D49224605F05C
:10035000CFFB2368092BE2D80A4B01220A480B493C
:100360001A7003F0FBFC0A480A4903F033FED6E793
:10037000880200107002001094020010D1B1000039
:10038000DBB10000920200100C030010C10100005C
:10039000F8020010404B4C002DE9F043044685B0B4
:1003A0001E46012300930F46E368914602A804F11C
:1003B0001001626804F05EFC9DF80830002B30D01C
:1003C000039F3846FFF749FF0021A5688046A160DA
:1003D000EDB12B6C2868B3FBF7F207FB123358F82A
:1003E00023205AB9A2682A60224642F8085F48F8DA
:1003F00023202A6842B148F8215005E012682A609B
:1004000058F823301D600B4619460546E0E7206882
:1004100004F00EFBB9FBF7F3676007FB1397C4F812
:1004200000802368C6F8409053F82720B8002AB10E
:100430001268326053F827301E6010E0A268326004
:10044000A66032683AB1116C6268B1FBF2F502FB4A
:10045000151243F82260234653F8082B1350E36823
:1004600030460133E36005B0BDE8F0832DE9F04389
:10047000044685B01E46012300930F46E36891466B
:1004800002A804F11001626804F0F4FB9DF8083042
:10049000002B30D0039F3846FFF7F0FE0021A568FF
:1004A0008046A160EDB12B692868B3FBF7F207FB2A
:1004B000123358F823205AB9A2682A60224642F81B
:1004C000085F48F823202A6842B148F8215005E027
:1004D00012682A6058F823301D600B4619460546FD
:1004E000E0E7206804F0A4FAB9FBF7F3676007FBC4
:1004F0001397C4F800802368C6F8109053F827209B
:10050000B8002AB11268326053F827301E6010E03C
:10051000A2683260A66032683AB111696268B1FBC4
:10052000F2F502FB151243F82260234653F8082B1C
:100530001350E36830460133E36005B0BDE8F08353
:10054000136870B51A6800254260094A00F1080670
:100550000446056029461A603046382205F0F5F851
:1005600004F11000FFF79CFE2564204670BD00BF1B
:10057000A41000100068096808B550F80C2C51F858
:100580000C3C9A4206D105F0ADF8D0F1010038BF1D
:10059000002008BD002008BD2DE9F047814608680D
:1005A0000D46214A50F80C1C04F046FAD9F80470A4
:1005B000D9F80030B0FBF7FA07FB1A0A53F82A8083
:1005C0000646B8F1000F0CD0D8F8004023699E42CF
:1005D0001DD12846211DFFF7CDFFC0B1D8F800007E
:1005E00090B9142004F010FA034640B129680022A3
:1005F00041600E49026029608260C2600261484623
:1006000051463246FFF732FF0830BDE8F0872368D5
:10061000002BE6D01A69B2FBF7F107FB1122524515
:10062000DFD1A0461C46D1E707690FC7A410001010
:100630002DE9F347814608688A461F4A50F80C1C8A
:1006400004F0FAF9D9F80460D9F80030B0FBF6F8F4
:1006500006FB180853F82870054657B13C68236C10
:100660009D421CD15046211DFFF784FFB8B1386868
:1006700088B94420CDF804A004F0C6F9044620B19E
:100680000E4901AA6B46FFF75BFF484641462A46E2
:100690002346FFF781FE083002B0BDE8F0872368EB
:1006A000002BE6D01A6CB2FBF6F106FB1122424594
:1006B000DFD127461C46D2E707690FC7D0B100003B
:1006C0002DE9F0474FF40063A8B0002422468DE8DE
:1006D0001800A949234614A802F040FB4FF07E55AC
:1006E0000A2109A806940794089409950A9404F02D
:1006F00089FA0690FFF7C2FD0A2105900FA80C9415
:100700000D940E940F95109404F07CFA0C90FFF762
:10071000A4FD03AA0B90994904A811941294139470
:1007200004F05AFA04A90BA8FFF782FF944900F0DD
:10073000FDFD04A804F020FA03AA924904A804F0DD
:100740004BFA04A90BA8FFF773FF8F4900F0EEFDE9
:1007500004A804F011FA03AA8C4904A804F03CFA96
:1007600004A90BA8FFF764FF894900F0DFFD04A886
:1007700004F002FA03AA874904A804F02DFA04A998
:100780000BA8FFF755FF844900F0D0FD04A804F042
:10079000F3F903AA814904A804F01EFA04A905A8E4
:1007A000FFF7FAFE4FF04109322680E8400204A824
:1007B00004F0E2F9314605A801F04AF9074618208D
:1007C00004F022F9DFF8E08100250146C0F800803E
:1007D000C4600461446145608560384600F0CAFF2A
:1007E000314605A801F034F903AA0646634904A876
:1007F00004F0F2F904A90BA8FFF71AFF01463046EE
:1008000000F0C8FE04A804F0B7F9352105A801F0EE
:100810001FF90746182004F0F7F8614E0146C4603E
:1008200004614461066045608560384600F0A2FFBF
:10083000352105A801F00CF903AA07464F4904A881
:1008400004F0CAF904A90BA8FFF7F2FE01463846E6
:1008500000F0A0FE04A804F08FF9352105A801F0EE
:10086000F7F803AA07464B4904A804F0B5F904A910
:100870000BA8FFF7DDFE0146384600F08BFE04A80A
:1008800004F07AF9362105A801F0E2F88246182032
:1008900004F0BAF8434F01460760C4600461446144
:1008A00045608560504600F065FF362105A801F0DF
:1008B000CFF803AA8246374904A804F08DF904A9A9
:1008C0000BA8FFF7B5FE0146504600F063FE04A8F2
:1008D00004F052F9392105A801F0BAF8824618202F
:1008E00004F092F80146C46004614461066045600A
:1008F0008560504600F03EFF392105A801F0A8F8B8
:1009000003AA8246234904A804F066F904A90BA8A7
:10091000FFF78EFE0146504600F03CFE04A804F0AE
:100920002BF9392105A801F093F803AA824615494D
:1009300004A804F051F904A90BA8FFF779FE0146B9
:10094000504600F027FE04A804F016F93A2105A845
:1009500001F07EF88246182004F056F80146C0F8EF
:100960000080C4600461446145608560504600F0C9
:1009700001FF3A2105A819E01D030000DEB10000C7
:1009800007C00920E1B1000006C00920E4B1000061
:1009900009C00920E7B1000008C00920EAB1000041
:1009A000CDCC4C3ECDCCCC3E9A99993E01F050F83E
:1009B00003AA8246A94904A804F00EF904A90BA8C9
:1009C000FFF736FE0146504600F0E4FD04A804F0AF
:1009D000D3F83D2105A801F03BF88246182004F029
:1009E00013F80146C4600461446106604560856097
:1009F000504600F0BFFE3D2105A801F029F803AAEA
:100A00008246964904A804F0E7F804A90BA8FFF76A
:100A10000FFE0146504600F0BDFD04A804F0ACF8FE
:100A20003D2105A801F014F803AA82468C4904A8C8
:100A300004F0D2F804A90BA8FFF7FAFD01465046CE
:100A400000F0A8FD04A804F097F83E2105A800F0E6
:100A5000FFFF8246182003F0D7FF01460760C460FD
:100A60000461446145608560504600F083FE3E218C
:100A700005A800F0EDFF03AA8246794904A804F016
:100A8000ABF804A90BA8FFF7D3FD0146504600F0D0
:100A900081FD04A804F070F8494605A800F0D8FFCD
:100AA0008246182003F0B0FF0146C460046144612F
:100AB000066045608560504600F05CFE494605A82A
:100AC00000F0C6FF03AA8246654904A804F084F832
:100AD00004A90BA8FFF7ACFD0146504600F05AFDF3
:100AE00004A804F049F8494605A800F0B1FF03AA9C
:100AF00081465C4904A804F06FF804A90BA8FFF72D
:100B000097FD0146484600F045FD04A804F034F87E
:100B100003AA554904A804F05FF804A905A8FFF743
:100B20003BFD4FF00F090460C0F8049004A804F0E6
:100B300023F8214605A800F08BFF8246182003F019
:100B400063FF0146C0F80080C460046144614560F1
:100B50008560504600F00EFE214605A800F078FFA3
:100B600003AA82463E4904A804F036F804A90BA85B
:100B7000FFF75EFD0146504600F00CFD04A803F0AF
:100B8000FBFF032105A800F063FF8246182003F055
:100B90003BFF0146C46004614461066045608560B6
:100BA000504600F0E7FD032105A800F051FF03AA1D
:100BB00082462B4904A804F00FF804A90BA8FFF7FC
:100BC00037FD0146504600F0E5FC04A803F0D4FFD1
:100BD000032105A800F03CFF03AA82461F4904A890
:100BE00003F0FAFF04A90BA8FFF722FD01465046C7
:100BF00000F0D0FC04A803F0BFFF042105A800F01A
:100C000027FF8246182003F0FFFE01460760C460FC
:100C10000461446145608560504600F0ABFD0421ED
:100C200005A800F015FF03AA82460C4904A803F0AA
:100C3000D3FF04A90BA8FFF7FBFC0146504600F0C8
:100C4000A9FC04A803F098FF072105A800F000FF05
:100C50008246182003F0D8FE08E000BFE1B1000092
:100C6000E4B10000DEB10000EEB100000146C46056
:100C700004614461066045608560504600F07AFD7D
:100C8000072105A800F0E4FE03AA8246A94904A8AA
:100C900003F0A2FF04A90BA8FFF7CAFC01465046C7
:100CA00000F078FC04A803F067FF072105A800F016
:100CB000CFFE03AA8246A04904A803F08DFF04A931
:100CC0000BA8FFF7B5FC0146504600F063FC04A8F2
:100CD00003F052FF082105A800F0BAFE8246182052
:100CE00003F092FE0146C0F80080C46004614461D4
:100CF00045608560504600F03DFD082105A800F0E4
:100D0000A7FE03AA82468C4904A803F065FF04A944
:100D10000BA8FFF78DFC0146504600F03BFC04A8F1
:100D200003F02AFF0B2105A800F092FE824618204E
:100D300003F06AFE0146C4600461446106604560D8
:100D40008560504600F016FD0B2105A800F080FEDE
:100D500003AA8246784904A803F03EFF04A90BA821
:100D6000FFF766FC0146504600F014FC04A803F0AF
:100D700003FF0B2105A800F06BFE03AA82466F4912
:100D800004A803F029FF04A90BA8FFF751FC0146B2
:100D9000504600F0FFFB04A803F0EEFE0C2105A86E
:100DA00000F056FE8246182003F02EFE0146076032
:100DB000C4600461446145608560504600F0DAFC1F
:100DC0000C2105A800F044FE03AA82465B4904A852
:100DD00003F002FF04A90BA8FFF72AFC01465046C6
:100DE00000F0D8FB04A803F0C7FE494605A800F0B0
:100DF0002FFE8246182003F007FE0146C4600461FE
:100E00004461066045608560504600F0B3FC494689
:100E100005A800F01DFE03AA8246484904A803F075
:100E2000DBFE04A90BA8FFF703FC0146504600F0C7
:100E3000B1FB04A803F0A0FE494605A800F008FE97
:100E400003AA81463E4904A803F0C6FE04A90BA8E4
:100E5000FFF7EEFB0146484600F09CFB04A803F0B8
:100E60008BFE03AA374904A803F0B6FE04A905A81F
:100E7000FFF792FB4FF0640973234360C0F80090C2
:100E800004A803F079FE494605A800F0E1FD82467A
:100E9000182003F0B9FD0146C0F80080C460046169
:100EA000446145608560504600F064FC494605A8F1
:100EB00000F0CEFD03AA8146214904A803F08CFE70
:100EC00004A90BA8FFF7B4FB0146484600F062FBFB
:100ED00004A803F051FE672105A800F0B9FD814682
:100EE000182003F091FD0146C4600461446106606E
:100EF00045608560484600F03DFC672105A800F08C
:100F0000A7FD03AA81460E4904A803F065FE04A9C3
:100F10000BA8FFF78DFB0146484600F03BFB04A8F9
:100F200003F02AFE672105A800F092FD03AA81467E
:100F30000AE000BFE1B10000E7B10000DEB100004F
:100F4000E4B10000F2B10000A34904A803F044FE9C
:100F500004A90BA8FFF76CFB0146484600F01AFBFA
:100F600004A803F009FE682105A800F071FD814680
:100F7000182003F049FD01460760C4600461446124
:100F800045608560484600F0F5FB682105A800F043
:100F90005FFD03AA8146904904A803F01DFE04A941
:100FA0000BA8FFF745FB0146484600F0F3FA04A8FA
:100FB00003F0E2FD6B2105A800F04AFD81461820F0
:100FC00003F022FD0146C46004614461066045608F
:100FD0008560484600F0CEFB6B2105A800F038FD87
:100FE00003AA81467C4904A803F0F6FD04A90BA8D6
:100FF000FFF71EFB0146484600F0CCFA04A803F0B8
:10100000BBFD6B2105A800F023FD03AA81467349AF
:1010100004A803F0E1FD04A90BA8FFF709FB0146B2
:10102000484600F0B7FA04A803F0A6FD6C2105A815
:1010300000F00EFD8146182003F0E6FC0146C0F8E2
:101040000080C4600461446145608560484600F0EA
:1010500091FB6C2105A800F0FBFC03AA80466049C7
:1010600004A803F0B9FD04A90BA8FFF7E1FA0146B3
:10107000404600F08FFA04A803F07EFD6F2105A81A
:1010800000F0E6FC8046182003F0BEFC0146C46078
:1010900004614461066045608560404600F06AFB7B
:1010A0006F2105A800F0D4FC03AA80464C4904A88F
:1010B00003F092FD04A90BA8FFF7BAFA01464046D7
:1010C00000F068FA04A803F057FD6F2105A800F0AE
:1010D000BFFC03AA8046434904A803F07DFD04A990
:1010E0000BA8FFF7A5FA0146404600F053FA04A802
:1010F00003F042FD702105A800F0AAFC80461820EC
:1011000003F082FC01460760C460046144614560ED
:101110008560404600F02EFB702105A800F098FC89
:1011200003AA07462D4904A803F056FD04A90BA8FD
:10113000FFF77EFA0146384600F02CFA04A803F0C7
:101140001BFD732105A800F083FC0746182003F05F
:101150005BFC0146C46004614461066045608560D3
:10116000384600F007FB732105A800F071FC03AAC4
:1011700004461A4904A803F02FFD04A90BA8FFF7A1
:1011800057FA0146204600F005FA04A803F0F4FCE3
:10119000732105A800F05CFC1149044603AA04A8C9
:1011A00003F01AFD04A90BA8FFF742FA01462046F6
:1011B00000F0F0F904A803F0DFFC0B4B0B481968B2
:1011C00004F076FB0A4B1B78C3B10A4804F070FBAD
:1011D00004A8094914E000BFE1B10000E7B1000034
:1011E000DEB10000E4B1000094020010F7B100008D
:1011F0009202001001B20000EAB10000044904A804
:1012000003AA03F0E9FC05A804A900F0DFF8D1E780
:10121000EEB1000037B5194B194D00933533194C19
:1012200001932846363B1849184A00F09FFD28468E
:10123000174D2246174903F035FC0023284616496E
:10124000164A02F095FE2846154D2246154903F030
:1012500029FC2846FFF724F82246134C2846134958
:1012600003F020FC20460021182204F06EFA1049F9
:10127000204603B0BDE8304002F030BF10C0092066
:101280002C020010C800001012C0092011C0092053
:1012900098020010A101000002C0092003C009202B
:1012A000F80200100502000070020010D5010000D5
:1012B00037C0092008B5054B984201D903F0FBFB64
:1012C00038235843BDE8084003F09EBB24499204EC
:1012D000F0B5034614468B421CD0C4B11D68A71A52
:1012E00025605D6802F10C0665609D68A5600025BB
:1012F000BD513E447560B560DE68E660DD6026691C
:101300001D6925611E6166695D6965615E611834EC
:101310001833E0E71B1A0448DB084343182023F086
:10132000604300FB0320F0BDABAAAA0A70B50446D7
:1013300000680E4608B103F07BFB182003F064FB45
:1013400018220546002104F000FA2846314602F032
:10135000C5FE2560204670BD0368DA685B681360CF
:10136000704703681A695B681360704770B504467C
:10137000406802F0EFFF2669E568B54204D02846D0
:10138000FFF7EAFF3835F8E7206802F0E3FF266947
:10139000E568B54204D02846FFF7E3FF3835F8E7A3
:1013A000A068BDE8704002F0D5BFF8B518254D43E0
:1013B00006460C461746BC4206D8306B013428441A
:1013C000FFF7D4FF1835F6E7F8BD00002DE9F04728
:1013D0000746086889461D4A50F80C1C03F02CFB90
:1013E0007D683B68B0FBF5FA05FB1A0A53F82A60E2
:1013F000804646B33468236998450FD1D9F8000078
:10140000616850F80C2C51F80C3C9A4206D104F05B
:1014100069F918B933687BB9BDE8F08723684BB127
:101420001A69B2FBF5F105FB112252450BD1264694
:101430001C46E0E7BDE8F08738469968DA68BDE801
:10144000F047FFF7B2BFBDE8F08700BF07690FC7DD
:1014500070B590E860000446B54205D005F108007B
:10146000FEF7B8FE3835F7E7206808B103F0E0FA78
:10147000204670BD70B5031D0A1D06460D4607CAFD
:1014800083E80700074B06F1140433602B69143519
:1014900033610FCD0FC495E8070084E8070030469C
:1014A00070BD00BF10B700002DE9F84390E8280098
:1014B000304FED1AED107D4314BF2B46012313EB83
:1014C000050804460E462C4A06D2904528BF904691
:1014D000B8F1000F06D000E090464046FFF7EAFE64
:1014E000054600E0454662682368D31ADB105F4377
:1014F00038235F43E81909D033680830EB5173682B
:1015000006F1080140F8043CFFF7B4FF2768D4F85F
:10151000049005F108060837A7F108039945A6F1DC
:1015200008020FD05AB157F8083C304646F8083C3C
:1015300057F8043C394646F8043CFFF79BFF383621
:101540003837E9E7303694E880024F4505D007F197
:101550000800FEF73FFE3837F7E7206808B103F0D0
:1015600067FA382384E8600003FB0855A560BDE8EE
:10157000F88300BFB76DDBB6244992040B6810B541
:1015800003604B680446436008310830FFF772FF80
:10159000204610BD10B5044663690069984206D024
:1015A00008B1FFF7EBFF23693833236103E004F14F
:1015B0000C00FFF779FF204610BD70B50E461446AB
:1015C0000546B54207D01CB120462946FFF7D6FF95
:1015D00038343835F5E7204670BD000081422DE9EA
:1015E000F84F8C46044600F0C08091E84002D0F8E5
:1015F000008082685E4BC6EB0905C8EB0202ED1065
:10160000D2105D435A4395429A461FD925B12846C8
:10161000FFF750FE074600E02F46304649463A465F
:10162000FFF7CBFF94E84001464505D006F10800DE
:10163000FEF7D0FD3836F7E7206808B103F0F8F977
:101640003823276003FB0577A76089E04268C8EB71
:101650000202D2105343AB4238D3B446C146AA4625
:10166000BAF1000F09F138090CF1380C1FDD5CF8F4
:10167000383CACF12C0249F8383C5CF8343CA9F118
:101680001C0649F8343CA9F12C0307CA83E807007B
:101690005CF8203CACF11C0749F8203C0FCF0FC68A
:1016A0000AF1FF3A97E8070086E80700D8E725EA3D
:1016B000E573382202FB03886668B04550D008F114
:1016C0000800FEF787FD08F13808F6E74FF0380903
:1016D00009FB0363C6EB03094FEAE9090AFB09F9B1
:1016E000B346B9F1000F08F138080BF1380B1FDDD4
:1016F0005BF8383CABF12C0248F8383C5BF8343CE2
:10170000A8F11C0648F8343CA8F12C0307CA83E86A
:1017100007005BF8203CABF11C0748F8203C0FCFDA
:101720000FC609F1FF3997E8070086E80700D8E7F8
:1017300094E84800F31ADB100AFB03FADCF80030E7
:10174000382202FB0A3ADCF80470BA4508D01EB110
:1017500030465146FFF712FF0AF1380A3836F4E7EF
:101760002368382202FB053565602046BDE8F88F06
:10177000B76DDBB60B6870B503604B6801F10C0602
:1017800043608B68044683600D460C303146FFF79A
:1017900025FF3046FFF75CFE284603F049F9204656
:1017A00070BD38B505460C46084609B1FFF782FD05
:1017B000382202FB040428606860AC6038BD000079
:1017C0002DE9F04700F10C0980460F46154600F15F
:1017D00014064C4647B30C2C22D02B68134944F80E
:1017E0000C3C6B68C8EB040A44F8083CAB68204624
:1017F00044F8043CEB682A69CA44D21AD210002388
:10180000514346F8083C46F8043C3360FFF7C9FFF3
:10181000E86829695AF80C2CFFF7CFFE4AF8080C43
:10182000013F18361834D5E7BDE8F087B76DDBB651
:101830002DE9F04F05468BB00F461C461646002A90
:1018400000F0FA8043688268DFF80082D21AD21072
:1018500008FB02F2B242C0F09C8023682269049324
:10186000636877490593A36807A80693E368D21ACB
:10187000D21000235143079308930993FFF791FF78
:10188000E0682169079AFFF798FE6C680890C7EB3B
:1018900004094FEAE90908FB09F9B14550D94FF0AD
:1018A000180909FB06F9C9EB040630462146224611
:1018B000FFF70EFD6B684B446B60F31BDB1008FBFE
:1018C00003F8B8F1000F22DD56F8183D01A844F8DE
:1018D000183D7368E2686360B36808F1FF38A3607D
:1018E0000023E360019222692361029262696361CD
:1018F0000392F268E260F360226933692361326126
:101900006269736963617261FFF7A2FDD9E7B94447
:101910000C37A7F10C0399450ED0049B384647F8C5
:101920000C3C059B07A947F8083C069B183747F86D
:101930001C3CFFF753FEECE707A8FFF789FD7BE0AF
:10194000C9EB06062046314604AAFFF739FF6A684C
:101950004FF0180808FB062238466A602146FFF758
:10196000B7FC6B680C3708FB09336B60A7F10C03FD
:101970009C42E1D0049B384647F80C3C059B07A9E4
:1019800047F8083C069B183747F81C3CFFF726FE33
:10199000ECE702682B499B1ADB1008FB03F8C8EB45
:1019A0000103B34202D2284803F08BF846452CBF0E
:1019B00008EB060908EB0809C14503D3894528BF90
:1019C000894600E08946BA1A204BD21003FB02FB7D
:1019D000B9F1000F06D0182000FB09F003F014F84D
:1019E000804600E0C8464FF0180A314622460AFBFE
:1019F0000B80FFF7E5FE394642462868FFF768FC92
:101A000069680AFB06023846FFF762FC95E8900019
:101A10000646BC4205D004F10C00FFF719FD18344E
:101A2000F7E7286808B103F003F8182303FB0983DC
:101A3000C5F800806E60AB600BB0BDE8F08F00BFF2
:101A4000B76DDBB6AAAAAA0A08B20000ABAAAAAA76
:101A50002DE9F041476B0446006B1B4A3B1ADB1033
:101A60005343994286B00E4626D34A1C002100916A
:101A7000019102919A424FF0000103910491059166
:101A800007D9D21A04F1300039466B46FFF7D0FE71
:101A90000FE00ED24FF0180808FB02084546BD4281
:101AA00005D005F10C00FFF7D3FC1835F7E7C4F8B3
:101AB000348003A8FFF7CCFC236B182000FB063012
:101AC00006B0BDE8F08100BFABAAAAAA38B582690A
:101AD000436A04461A600D46012002F02FFC69009B
:101AE00001F07E01204602F0ABF9012002F026FC55
:101AF000FF21204602F0A4F90546012002F01EFC59
:101B0000236AA26901201A6002F018FCE8B238BD0D
:101B100070B5436A044680690E461860760001205D
:101B2000154602F00BFC06F07E0141F00101204653
:101B300002F086F9012002F001FC2946204602F05D
:101B40007FF9012002F0FAFB236AA26901201A60E2
:101B5000BDE8704002F0F2BB38B58269436A0446C2
:101B60001A600D46012002F0E9FBE91041F0800106
:101B7000204602F065F9012002F0E0FB690101F066
:101B8000E001204602F05CF9012002F0D7FBFF21C2
:101B9000204602F055F90546012002F0CFFB236AEA
:101BA000A26901201A6002F0C9FBE8B238BD2DE934
:101BB000F8430F46312105469046FFF787FF00F0B6
:101BC000080303F0FF0063B34FF440712846FFF7AA
:101BD000C3FF00F20131044689B22846FFF7BCFF7B
:101BE00004F20231284689B2FFF7B6FF0026F3B2AD
:101BF000A34212D2434506F2013108D2284689B2E7
:101C0000FFF7AAFF07F1010938704F4603E02846A5
:101C100089B2FFF7A1FF0136E9E7444534BF20460A
:101C20000020BDE8F88370B5436A044680690D461C
:101C300018600120164602F081FBE91041F0800196
:101C4000204602F0FDF86D01012002F077FBE9B2B9
:101C500041F01001204602F0F3F8012002F06EFB83
:101C60003146204602F0ECF8012002F067FB236ABF
:101C7000A26901201A60BDE8704002F05FBB036AF0
:101C8000826910B51A60026BC36B04461A60642047
:101C900002F054FBA36B226B64201A6002F04EFB2F
:101CA000204636210422FFF733FF2046362100224A
:101CB000FFF72EFF204636210022FFF729FF20469E
:101CC0000121AA22FFF724FF20460221AA22FFF7C2
:101CD0001FFF20460321AA22FFF71AFF20460421F6
:101CE000AA22FFF715FF20460D210122FFF710FF62
:101CF000204640F202218022FFF795FF204640F265
:101D000003210022FFF78FFF204640F206218022A8
:101D1000FFF789FF20464FF402711022FFF783FF7F
:101D200020463A217822FFF7F3FE20463E2140224A
:101D3000FFF7EEFE20463F210022FFF7E9FE204696
:101D40004FF400710022FFF76EFF204600210122B0
:101D5000FFF7DEFE204636210422FFF7D9FE20469B
:101D600036210022BDE81040FFF7D2BE73B504460D
:101D70004FF0FF350095182604F1140502F00EF817
:101D800032462846002103F0E0FC2846069904F17B
:101D90002C0502F0A3F932462846002103F0D5FCB9
:101DA0002846079902F09AF900222046082102F0FD
:101DB00033F82046044902F03BF82046FFF75FFF66
:101DC000204602B070BD00BF20A1070080F3098843
:101DD0007047EFF309807047684680F309884148EF
:101DE0000078C00714BF0220032080F314887047D6
:101DF000DFF8F4C0EFF305831B0618BF6047EFF36D
:101E00001483DB0708BF604700DF7047DFF8DCC0E2
:101E1000EFF305831B0618BF6047EFF31483DB075E
:101E200008BF604700DF7047EFF30980816911F850
:101E3000021CF9B990E80F10E047EFF3098C8CE829
:101E400007002B4B93E80600914200F0108039B157
:101E50002CE9F00FC1F828C00CB400F0A5FB0CBCB5
:101E60001A60D2F828C0BCE8F00F8CF309886FF034
:101E7000020E704710B51F4A1268914200F20A80A4
:101E80001D4C54F8214090E80F10A047EFF3098C47
:101E90008CE80F0010BD00F019FB154B93E806000D
:101EA000914200F01180EFF3098C2CE9F00FC1F89A
:101EB00028C00CB400F078FB0CBC1A60D2F828C023
:101EC000BCE8F00F8CF309886FF0020E704700F049
:101ED0004DFBFFF7E2BF00F047FB00F047FBFFF7C9
:101EE000DCBF000022B20000012200001B22000023
:101EF0002803001000000000FCFFFFFF08B50448A5
:101F000000F020FE034B58600223437008BD00BF61
:101F1000800E001028030010074B01201B889842F8
:101F200007D8064A02EB800252F8042C12B10130A5
:101F3000F5E70020704700BF20B20000000C001041
:101F400030B50024012504704570817044608460C0
:101F5000C46004618482C4820483448380F8204086
:101F60001146BDE8304000F0CBBE0000024B586087
:101F700002234370704700BF2803001070B5044669
:101F800018B9BDE87040FFF7B9BF0B4DA2782868BB
:101F9000012683789A4207D900F0E6FD2B685E702F
:101FA00002236C60637070BD667021460348BDE813
:101FB000704000F0AFBD00BF28030010800E00107D
:101FC00038B50D46014678B14FF6FF729042074C86
:101FD00002D0206800F0D2FD236805485D7000F053
:101FE000B1FD02236060437038BD00BF28030010BC
:101FF000800E0010024B186800B1C078704700BF17
:102000002803001010B588B9174B1B689970174842
:1020100043689B788B4222D9134C216800F07AFDEB
:10202000236801225A70FFF769FF18E0104B1B88E4
:10203000984216D80F4B013853F820408CB10A4B08
:10204000A1701B689C42E2D0204600F00BFE637832
:10205000012B04D1054800F075FDFFF78FFF00202C
:1020600010BDFF2010BD00BF28030010800E00101F
:1020700020B20000000C001070B5184D18B12B688C
:10208000DB78984213D12E6800247470FFF7A1FE0C
:10209000B06200F089FA2B68114AD9782C600139B6
:1020A00042F82140DC62FFF729FF204670BD0D4B4E
:1020B0001B8898420FD80A4C461E54F8265055B13A
:1020C000284600F0B9FD284600F0E6FD002044F85F
:1020D0002600E86270BDFF2070BD00BF280300101D
:1020E000000C001020B2000010B5284B1A88002305
:1020F000934205D22649002041F823000133F7E737
:10210000244CFF23E370244B20461B88002163628C
:10211000224B234AE362FFF713FF224A00230421E4
:1021200011705360204A1170D360136193821F4A6B
:102130001460022262701E4A137053701D4B1B788C
:10214000D37000F07FF81C4B1A6842F47F021A60CB
:102150001B681B0203F07F43DB43B3FA83F3174A88
:10216000DBB21268C3F10803C2F302229A42A8BF8D
:10217000531C6FF0807000FA03F3114A03F07F43A1
:10218000116821F07F410B43136010BD20B20000A5
:10219000000C00103003001028B200005C0C00108E
:1021A000B12A0000800E0010680E001028030010F5
:1021B0007C0B00102AB2000020ED00E00CED00E0E6
:1021C0001CED00E008B500F0B9F90C4B00281860D0
:1021D00012DB00F16040FF2200F5644002701A68D3
:1021E0000121531102F01F0201FA02F29B0003F1D8
:1021F000604303F561431A6008BD00BF6C03001023
:10220000EFF3108172B6036801F001010BB11A6897
:10221000026001B962B61846704781420DD3436827
:1022200099420AD2EFF3108272B603680B60016024
:1022300012F0010003D162B6704701207047002000
:1022400070470000034B00221A60034A1268DA80CC
:10225000704700BF6403001030B2000008B50F4B98
:1022600059680F4B1A688A420E4A05D0D8881960FF
:1022700011680138014499809988138899420BD1DB
:10228000074B002205481A6000F05CFCBDE80840DE
:102290000146024800F03EBC08BD00BF800E0010A1
:1022A00064030010640E00100123103903708908C4
:1022B0000023437083704360038143818381C18124
:1022C0007047000038B5838904461546002B35D089
:1022D0004289101D54F8200001320860E18992B251
:1022E0009142628104BF002262816268F2B1627829
:1022F000022A1BD1204600F025FC0021054600F0F3
:1023000025FD2389EA69191D44F821200133E2895A
:102310009BB29A42238108BF0023284608BF23812D
:1023200000F0BAFC2846FFF729FE05E0EFF3108223
:1023300072B6013BA38162B6002038BD82B142680B
:10234000084B1AB1196800F0E5FB05E01B68436013
:102350005A6098600123437028460821FFF730FE39
:10236000012038BD28030010C2898089101A7047E7
:1023700008B500F0A5FCBDE8084000F095B88389D9
:1023800010B50446EBB14389043350F823300B6099
:102390004378022B04D1002100F092FC00F084F875
:1023A000EFF3108372B6A389013BA38162B6638900
:1023B000E28901339BB29A42638104D10023638195
:1023C00001E0184610BD042010BD0000436870B540
:1023D00004460E46002B4AD04578022D1CD0032D12
:1023E0000AD0012D5DD100F0ADFB1021044632462C
:1023F00000F0AFFC657034E00846FFF701FF0546CA
:1024000000284ED0204600F09DFB2946044600F0EF
:102410009DFC0123637024E000F094FB002105463D
:1024200000F094FC2389EA69191D44F82120EFF398
:10243000108272B6A2890132A28162B6E2890133AA
:102440009BB29A42238104BF0023238101232846A3
:102450006B7000F021FC13482946BDE8704000F085
:1024600059BB204600F018FC0E482146F5E780894C
:10247000E189884210D22289151D44F82560EFF3C6
:10248000108572B60130A08162B6013292B28A42E2
:1024900014BF2281238170BD0320BDE8704000F08D
:1024A00008BB70BD800E0010054B1B7823B9054B8F
:1024B0004FF080521A607047034B01221A70704728
:1024C0007103001004ED00E07003001038B5184BE4
:1024D000184D18680123437000F046FB6C78AA7809
:1024E000144BEAB103EBC403586802781AB919898E
:1024F00000F09AFA07E0012A03D19968FFF766FF16
:1025000001E000F0BBFAEB7801349C4208BF0024E4
:10251000EFF3108372B6AB78013BAB7062B6DEE7C7
:102520005C70054800F00EFBBDE83840FFF71EBDAB
:10253000280300107C0B0010800E0010084B4FF099
:10254000FF301A68074B1A6000225A60072243F8CE
:10255000042CD3F80C2D42F07F42C3F80C2D7047A9
:102560002CB2000014E000E07047000008B50B4BEF
:1025700018680123437000F0F7FAFFF76FFE084B6D
:102580001A6801321A6000F01FFB00F05DF905487F
:1025900000F0D8FABDE80840FFF7E8BC28030010B7
:1025A000640E0010800E0010084B1B68DA78012AB8
:1025B0000AD0DA6A9B6A9A4203D81268044B9A429C
:1025C00002D0012000F075BA704700BF2803001048
:1025D000A52E5AE238B1830704D10378002B18BF27
:1025E000002070470020704700B5DFF80CC000DF06
:1025F000DFF808C000DFFEE7A9270000C1270000C0
:1026000030B50C4C00222368254633B11C89A14209
:1026100003D31A46091B1B68F7E789B203600181DF
:1026200013B11C89611A19810AB1106030BD28608C
:1026300030BD00BF74030010431C11D00B4B9842F7
:1026400011D80B4B4FF47A711B685A1E01FB002006
:10265000B0FBF3F04FF6FE73984228BF1846704760
:102660004FF6FF7070474FF6FE70704700093D004F
:1026700024B2000038B5084C257855B9FFF734FD71
:10268000064BFF221B6828469A7000F014FA0123BB
:102690002370002038BD00BF720300102803001013
:1026A00010B5EFF305845CB9EFF31484E40703D4A9
:1026B000BDE81040FFF7DEBFDFF808C000DF10BD47
:1026C000822010BD7526000010B588B0EFF3058498
:1026D00034BBEFF3148404F00304022C0CD0032C5D
:1026E00016D0012C1ED008AC84F309880F4C247836
:1026F000E40705D5022404E00C4C2478E4070BD44D
:10270000032484F31488BFF34F8FBFF36F8F03E06C
:10271000064C2478E40705D4DFF814C000DF02E09B
:10272000822000E0FF2008B010BD00BF22B20000F0
:10273000E52800002DE9F8438946044660B10368A6
:1027400053B1B0F8048008F103039BB2062B03D801
:1027500083680BB1C2682AB9802000F0ACF9002070
:10276000BDE8F8834363C26300F11005FFF7D4FBB3
:102770000B4E471E46F8275008F104012268E0740A
:10278000C9B22846C4F82C90FFF7DAFB2846FFF7B9
:10279000F5FB56F82700034A836A5A63BDE8F883BD
:1027A000000C0010E925000008B5FFF723FC18B164
:1027B000024B013853F8200008BD00BF000C001088
:1027C00008B5FFF707FF38B1C078FFF755FCFF28C1
:1027D00014BF0020812008BD802008BD70B50546CB
:1027E0000C46EFF3058686B9EFF31486F60706D498
:1027F000074E36781EB9BDE87040FFF79BBF2846EC
:102800002146DFF810C000DF70BD002070BD00BFA2
:10281000780300103527000010B5EFF305841CB9CC
:10282000DFF808C000DF10BD822010BDC127000006
:10283000830706D128B10169C3680A6819461046A2
:102840007047002000217047F8B5134B1C681F46E5
:102850000CB32389013B23812389E3B90F4B2668FD
:102860001D683E6055B12B78012B07D12846FFF734
:102870007BFD18B128462146FFF77AFD6379012BCD
:1028800004D120466189FFF7BBFE01E001232371DB
:102890000EB13446E0E7F8BD74030010600E00107E
:1028A00010B504460846DFF80CC000DF84E80300DA
:1028B000204610BD3128000010B5044618B101684B
:1028C00009B1406820B9802000F0F5F8002010BD63
:1028D0000378002BF7D10431890089B2FFF7E4FCBB
:1028E000606810BD38B5104D2C78D4B921460F481A
:1028F000FFF7E2FF0E4B214618600E48FFF71AFF64
:102900000D4B214618602046FFF77CFB0B4B1A68E5
:10291000926A203282F309881C60FFF753FC01237E
:102920002B70002038BD00BF78030010100100108C
:10293000600E0010180100105C0E0010280300103B
:102940002DE9F04F0C4685B08046E8B10378012BA5
:102950001FD10846FFF770FE02A982B24046FFF77A
:10296000B1FC012806D10020002C0246034618BF06
:10297000402003E00020024603461020029904464E
:102980000D4616461F4608E08024054606460746C3
:1029900003E0002580242E462F4620462946324655
:1029A0003B4605B0BDE8F08F7FB5044616460846A5
:1029B000EFF30581A9B101AD00B10AB180230AE0AE
:1029C0000378012BFAD102A9FFF7D9FC042801D022
:1029D000019601E01023019395E8070084E80700C1
:1029E00005E01146DFF80CC000DF84E80700204650
:1029F00004B070BD412900007FB50A4B03A81968D7
:102A00004FF0FF32FFF7D0FF039B102BF5D101A849
:102A10000499FFF745FF019B002BEED002989847E1
:102A2000EBE700BF600E001010B5038B427819432E
:102A3000062A04460183438B04D101EA03029A4229
:102A400019D105E0052A16D111EA030213D04283F9
:102A500021EA03012183204600F01EF901232046CC
:102A600063700821628B00F074F921460248BDE8CA
:102A7000104000F04FB810BD800E0010426810B535
:102A80007AB100F05FF8044600F006F901216170A8
:102A9000204600F05BF921460448BDE8104000F0F4
:102AA00039B842880132428010BD00BF800E00104C
:102AB000FEE700F019BA08B100F016BA704700003E
:102AC0000449054AC1F1805303F5F8439360D1608E
:102AD000704700BF50110010CC00001000200021F2
:102AE00004460D46094802F042FA02F06BFD20460A
:102AF0002946FFF7D5FDFFF7E3FF05480021FFF763
:102B00006DFEFFF7E1FD02F04FFA00008553000073
:102B1000CC00001030B502788C78013A4368D2B20C
:102B20002BB19D78A54202D318465B68F8E7022ACC
:102B30004B60416003D803B19960886030BD0023C9
:102B40008B6030BD436802785968013A022A4160BF
:102B50004FF0000204D809B188605A609A6000E022
:102B60005A60184670470000034B5A6842600022C2
:102B700082605860704700BF800E0010114B10B586
:102B8000DA680AB19A8A0CE000248A1AC460D86014
:102B900003619A82848210BD002CF5D0A38A1A4466
:102BA00023468A42DC68F7D3C460D860C4680361F6
:102BB00004B12061521A92B28282998A8A1A9A8248
:102BC00010BD00BF680E001038B5184DEB68002B23
:102BD0002AD0AB8A013BAB82AA8A2ABB134BDC68A2
:102BE00014B3A3683BB161685960616809B18B6037
:102BF00062600023A3600E482146FFF78BFFA38A83
:102C0000AB826378042B04D10A4B1A68E38A13441D
:102C1000A38201236370E3680022EB6013B10349D0
:102C20001961E2602261D7E738BD00BF680E00106D
:102C3000800E0010640E001083682BB142685A6049
:102C400042685AB193607047054B5A68824202D17C
:102C500042685A6070470AB11346F6E7704700BFF2
:102C6000800E001038B58468054624B94378012BDE
:102C70000ED1084C03E023780BB9A468FBE7284683
:102C8000FFF7DAFF20462946BDE83840FFF742BF8C
:102C900038BD00BF800E0010036910B573B1C26863
:102CA000DA60C2683AB1998A848A214499821361B0
:102CB0000023C36000E09A820023036110BD00007E
:102CC00030B50E4AD578EFF3108372B69378AB42E5
:102CD00007D20133937013785C1CAC4208BF002408
:102CE000147062B6AB4204D202EBC3035860996021
:102CF00030BD0220BDE83040FFF7DBBE7C0B00108A
:102D0000436AF0B5C46A23F0030323445A0748BF5B
:102D1000043B4FF0807203E90600A3F14005A3F1E4
:102D20004402A3F10C06002742F8047FB242FAD114
:102D3000C26943F8202CC3788562012B18BF024B6F
:102D4000016318BF2360F0BDA52E5AE2836A1962A1
:102D50007047836A19625A627047000070B5059D1A
:102D6000044616460498114AA1602260A38120619E
:102D700015B1656100230EE08008B0F1FE5F94BFDD
:102D800080004FF0FF3001F094FE606110B90848F8
:102D900001F07EF9012384F84C3004F1080031463B
:102DA000FFF71CFD6060204670BD00BF60B20000F0
:102DB00034B200004068FFF72FBD0000074B10B58C
:102DC00004460360FFF7F6FF94F84C301BB16069CE
:102DD00008B101F06CFE204610BD00BF60B20000DB
:102DE00010B50446FFF7EAFF204601F021FE204619
:102DF00010BD00000C4A30B4936894681A46B4F1D0
:102E0000805F0CD2094A03F1C40553F8044BAB426E
:102E100042F8044FF9D1044B4FF080529A601030C1
:102E200042F8201030BC704700ED00E0FCFFFF0FBF
:102E30002B4A202370B4C2F8A031D2F8A0319806F2
:102E400045D4274B022100250124AA2055220B2618
:102E5000C3F80411C3F8A8511946C3F8AC51C3F81C
:102E60000C41C3F88460C3F88C00C3F88C20C3F80D
:102E70008040C3F88C00C3F88C20D1F88830184A01
:102E80005B01FAD50321AA205523C2F88010C2F8AD
:102E90008C001146C2F88C30D1F88830104A13F0FB
:102EA000407FF9D00F4900230520C2F80801C2F87D
:102EB000C410C2F8C831136870BC23F4704323F007
:102EC0003A0343F4405343F03A0313607047D2F897
:102ED000A0315906B5D4D2F8A0315906F7D5B0E7DC
:102EE00000C00F40DE87280400B599B072B63B4998
:102EF000684601F0F3F806A8394901F0EFF80CA88C
:102F0000384901F0EBF812A8374901F0E7F832E050
:102F10000699039B019A01311A6059D00C990A9BBA
:102F2000079A01311A604DD01299109B0D9A013108
:102F30001A6041D0159B139A96201A6001F016FA78
:102F4000009B013332D00699049B019A01311A602B
:102F500026D00C99099B079A01311A601AD0129950
:102F60000F9B0D9A01311A600ED0169B139A962072
:102F70001A6001F0FBF9009B0133C9D11B481C49C1
:102F8000242201F06FF8C3E718481949242201F000
:102F900069F8EAE715481649242201F063F8DEE7EC
:102FA00012481349242201F05DF8D2E70F48104976
:102FB000242201F057F8C6E70C480D49242201F0FD
:102FC00051F8B7E709480A49242201F04BF8ABE76A
:102FD00006480749242201F045F89FE732C009203E
:102FE00034C0092035C0092037C0092068B200006C
:102FF00080B20000036870B51B69002101220446FD
:103000009847431C05460ED0236820461B690021C3
:10301000022298472368064629461B69204600225B
:103020009847304670BD70BD084A094B10B4026025
:1030300003F58071002453F8042B824208BF43F843
:10304000044C8B42F7D15DF8044B704708B3000085
:10305000980E00100A4A0B4B10B503F58071044618
:103060000260002053F8042B944208BF43F8040C7C
:103070008B42F7D1204601F0DBFC204610BD00BF9B
:1030800008B30000980E001002480349034A00F0FC
:1030900029BD00BF4011001002C0092003C0092053
:1030A000F0B50E4685B03549054602F090FD20B9D1
:1030B000334B1B6863B105B0F0BD2846314902F0BF
:1030C00086FD78B92E4B1B6843B1012005B0F0BDD9
:1030D0000190FFF7D9FF019805B0F0BDFFF7D4FFCD
:1030E0000120E8E72846284902F071FD10B3274B7C
:1030F000002402E00134402C21D053F8040F0028B2
:10310000F8D12B783A2B32D0294602A800F0C8FD1E
:1031100002A800F017FE90B102A800F0FBFD88B1F4
:1031200002A800F001FE03464BB1194AE01C42F828
:103130002430C0E7124B1B68ABB10220BBE74FF055
:10314000FF30B8E702A800F0D9FD05460028F6D008
:10315000036802A89F6800F0CFFD3246014628466A
:10316000B8470346E0E7FFF78FFF0220A3E72846B2
:10317000084902AA02F0BCFC029BD5E7E8B20000B5
:10318000980F0010F8B20000F0B20000940E00108A
:10319000980E001030B30000022808B50BDD084B74
:1031A000C21E53F82200002143F8221028B1036800
:1031B0005B68984708BD002008BD4FF0FF3008BD90
:1031C000980E0010022870B50C4616460FDC0E4B08
:1031D0001B680BB9FFF758FFA51936B114F8011B8E
:1031E0000A4800F0CFFBAC42F8D1304670BD084B26
:1031F000033853F8200018B103681B68984770BD66
:103200004FF0FF3070BD00BF980F0010401100104C
:10321000980E0010022810B50C4609DC0D4B1B68F7
:103220008BB10D4800F058FB01232070184610BDEB
:103230000A4B033853F8200040B103689B68984755
:103240000346184610BDFFF71FFFEAE74FF0FF33B4
:10325000ECE700BF980F001040110010980E00100E
:10326000022808B508DD074B033853F8200028B1C1
:103270000368DB68984708BD012008BD4FF0FF30A8
:1032800008BD00BF980E0010022808B508DD074BE6
:10329000033853F8200028B103681B69984708BD1C
:1032A000002008BD4FF0FF3008BD00BF980E001091
:1032B000022808B504D84FF400534B60002008BD25
:1032C00001F06CFE092303604FF0FF3008BD00BF22
:1032D00008B5012001F068FE704700BF704700BFCD
:1032E00008B5FFF7FBFFFFF7F7FFBDE80840FDF764
:1032F000E7B900BF074A13681844EFF30881884212
:1033000002D2106018467047034B0C221A604FF02F
:10331000FF30704760010010481100100A4C08B5DA
:1033200023680546986801F05BFF2368D86801F0C0
:1033300057FF00F0BFFE20B905B9FEE7FFF7D4FD47
:10334000FBE700F071FFF7E7C4010010002102F075
:10335000D7BA00BF0649074A074B9A42BEBF51F889
:10336000040B42F8040BF8E7044880470448004780
:103370007CC30000C800001010020010312E0000B5
:1033800021010000FEE7FEE7FEE7FEE7FEE7FEE7BD
:10339000FEE7FEE7FEE7FEE708B5154A9368C3F3CC
:1033A0004203012B1ED0022B19D1124B596F013150
:1033B0000AD0D3F88010986F086093F8A61019B956
:1033C000516821F001015160186F0A4B48B193F820
:1033D000A6302BB10021084A1368984708BD08BDE4
:1033E00008BD08BD034A106F0028F9D01946F2E75E
:1033F00000800940A00F00109C0F001070B50368FA
:10340000294CA34249D041DD284CA3422AD004F5DF
:103410008044A34244D1264C08263ABB01290BD054
:103420004568244AC5EBC50502EBC50494F8355040
:1034300094F83620EA4214D1012202FA01F5D1F1C2
:10344000010138BF002102FA01F15C6824EA050499
:103450005C6003685B68194203D1B240164BC3F845
:10346000802070BD154C0726002AD7D0012505FA0B
:1034700001F176B2304605FA06F65A680A435A60F8
:103480002146FFF7B7FC0C4B1E6070BDA4F58044CD
:10349000A34205D10A4C0526BFE70A4C0626BCE725
:1034A00000242646B9E700BF000001400080094023
:1034B0002D350000A00F001000E100E0993300005E
:1034C000C93400009935000008B5154A9368C3F364
:1034D0004203012B1DD0022B18D1124B5968013128
:1034E00009D019699868086093F8361019B95168BD
:1034F00021F00101516018680A4B48B193F8363049
:103500002BB10021084A1368984708BD08BD08BDC3
:1035100008BD044A10680028F9D01946F2E700BF38
:1035200000C00040A00F00109C0F001008B5174A03
:103530009368C3F34203012B21D0022B1CD1144BFF
:10354000D3F8AC1001310BD0D3F8B810D3F8B000D9
:10355000086093F8DE1019B9516821F0010151603B
:10356000D3F8A8000A4B48B193F8DE302BB1002104
:10357000084A1368984708BD08BD08BD08BD044A3D
:10358000D2F8A8000028F8D01946F1E700C0094099
:10359000A00F00109C0F001008B5154A9368C3F3E4
:1035A0004203012B1DD0022B18D1124BD96B0131D4
:1035B00009D0996C186C086093F86E1019B95168AD
:1035C00021F001015160986B0A4B48B193F86E30BD
:1035D0002BB10021084A1368984708BD08BD08BDF3
:1035E00008BD044A906B0028F9D01946F2E700BFE5
:1035F00000000140A00F00109C0F00102DE9F04FBB
:103600000368884A8DB0934209908B4600F3F0809E
:10361000854A934200F0F78040F3D780834A934273
:1036200000F09F8002F5804293420CD1804AD2F88C
:10363000AC1121F44021C2F8AC11D2F8AC1141F424
:103640008021C2F8AC117B494FEA0B12096808913E
:10365000089CB1FBF2F102FB114289B20491002AED
:1036600000F0B1806100A2000123029400240B91BC
:103670000A9201930F4603920693CDF81CB05E4662
:103680000594DDF81CA001994FF00008D146CDB299
:10369000DA46C346002F79DB0399DDF804E0B1FB7D
:1036A000F9F464090134C4F34F04DE44002C66D1FC
:1036B0000124B8F1000F67D104FB0EF0029AC0009C
:1036C000B2FBF0F00130CAEB500001F04CFCB0420C
:1036D00006DA504564D00646CDF814800494069569
:1036E0000BF1010B5FFA8BF84545D144D2D8019C10
:1036F000D3460F2C4FF000035DD0029A0899019C2D
:103700000A440B99013402920194039A0F440A9CD3
:1037100007992244594403920791002BB1D0069B8C
:10372000059A099C42EA03102368C0B2197B049CE5
:1037300041F08001C4F30722099C1973236804999E
:103740001A7123685FFA81FB83F800B0236883F85D
:10375000280023681A7B02F07F021A730DB0BDE8BF
:10376000F08F334AD2F8AC1121F44031C2F8AC11D9
:10377000D2F8AC1141F48031C2F8AC1163E7B8F172
:10378000000F99D0012C97D8022495E7B7FBF9F4E4
:103790002409DDF804E00134C4F34F04DE4485E776
:1037A0000494019CD3460F2C0695CDF81480564600
:1037B0004FF00103A1D10599069A099C41EA021034
:1037C000C0B22368B2E71020B0E7A2F5804293426E
:1037D0007FF439AF164AD2F8A81121F0C001C2F81F
:1037E000A811D2F8A81141F04001C2F8A8112AE7A7
:1037F0009B221148114900F035FC099C0A4A2368B4
:1038000093427FF409AF0A4AD2F8A81121F440711B
:10381000C2F8A811D2F8A81141F48071C2F8A81119
:1038200011E700BF00C009400000014000800940CE
:1038300000C00F405C010010E0B30000FCB30000CA
:10384000F8B55D1E012D07460C46164604D91548ED
:103850001549FB2200F006FC053C032C1CD8042E65
:1038600014D8013EF6B2032E0DD8104B082253F89F
:1038700026301B01DBB244EA8504144323433A6833
:10388000DBB21373F8BD00231A46F4E70848064973
:10389000FE2200F0E7FBE4E706480349FC2200F0C3
:1038A000E1FBDCE764B40000FCB3000064B300009B
:1038B000B0B400008CB40000436810B40448054C58
:1038C000C3EBC30344F8332001605DF8044B704739
:1038D0009C0F0010A00F001000B50268137DDB07DD
:1038E000FCD543680949C3EBC30301EBC303596823
:1038F00010780131C0B207D0596904335B680B609E
:10390000536843F0010353605DF804FBA00F0010FF
:1039100038B54368184AC3EBC303DB00D11804462B
:10392000C869013011D018331A445368151D01338A
:1039300016D06A696B6812681A4204D12368187D30
:10394000C0F3801038BD002038BD23681B7D9B0666
:103950000CD491F834000F288CBF0020012038BD12
:10396000064807492C2200F07DFBE2E7002381F89E
:103970003430012038BD00BFA00F001068B2000035
:1039800034B5000038B504460D462046FFF7C0FFA9
:103990000028FAD02368EDB21D706268054BC2EBB7
:1039A000C20203EBC20393F83420013283F83420BF
:1039B00038BD00BFA00F00102DE9F04F0446454D63
:1039C000006883B0A8420E469046994643D0656889
:1039D000002301932A46DFF808A1EF00C2EBC202E0
:1039E000781B4FF0000E0AEBC0000AEBC20C4FF040
:1039F000FF33C36143607146724620468CF835E060
:103A0000FFF7FCFC16B903B0BDE8F08F3249404621
:103A100000F0E2FB31498346484600F0DDFBB21E70
:103A2000012A38D9012EEED1B8F1FF3FEBD0294958
:103A3000226807208B45107215D1019B9BB11B7C1E
:103A4000019A254943F040034046137403B0BDE892
:103A5000F04F00F08FBB037C656803F03F030374F5
:103A600062680190B7E77D1B0AEBC5004146043050
:103A7000002200F055FB62680125C2EBC2020AEB8E
:103A8000C20320462A46002183F8355003B0BDE822
:103A9000F04FFFF7B3BCB9F1FF3F09D00D4A904298
:103AA0000CD0781B0AEBC00049461C3000F004FB28
:103AB000032EA8D1B8F1FF3FB9D1A4E7019B002B99
:103AC000EFD01A7C484642F080021A74034900F095
:103AD00051FBEDE70000014040B300001CB60000C0
:103AE000A00F00102DE9F0470F4605460846614932
:103AF000164600F07FFB60490446304600F07AFB32
:103B00000146204600F056FB411C044600F0AB8005
:103B10005A4B2860984200F0838053D9584B984202
:103B200076D003F58043984206D1564BD3F8C42093
:103B300042F00072C3F8C4204FF0010984F80890E5
:103B40002B684FF00008C3F8048028464FF4165144
:103B5000FFF754FD42464B4628460821FFF770FE0A
:103B60003846444900F006FB3046434900F002FB6A
:103B70007A1C03D03846414600F07CFC731C03D00D
:103B80003046002100F076FC3C4B9C4250D025D9B9
:103B90003B4B9C4264D003F580439C424BD10323B2
:103BA0006B603949C3EBC3034FF0FF34284601EB88
:103BB000C305224623466C60EC610021BDE8F04756
:103BC000FFF7FABEA3F580439842B5D12D4BD3F849
:103BD000C42042F00802C3F8C420ADE7A3F5804337
:103BE0009C4228D1284E4FF0FF34002169602246C4
:103BF000234628467460F461FFF7DEFE234B012460
:103C000029461C6022480822BDE8F04701F079BD32
:103C10001C4BD3F8C42042F08072C3F8C4208BE759
:103C2000184BD3F8C42042F01002C3F8C42083E735
:103C300001236B60B5E76B681349C3EBC3034FF017
:103C4000FF3601EBC30732463346284600217E602B
:103C5000FE61FFF7B1FE0F4B9C42CFD0BDE8F0876D
:103C600002236B609DE70C480C495C2200F0FAF9D6
:103C70002C6061E7B0B5000074B3000000000140A3
:103C80000080094000C00F40A00F0010980F0010E6
:103C90004011001000C00040A0B50000FCB30000BF
:103CA00038B50023036043600A7804462F2A01D008
:103CB000204638BD4A78002AFAD0481C20604A784D
:103CC0002F2A14D0B2B18D1C194600E052B12560E4
:103CD0002A782B462F2A01F1010105F10105F5D1C2
:103CE0000133236000F0F2FD6060204638BD1946C4
:103CF0000346F5E71146F5E70068704710B504463E
:103D0000406828B100F000FE012801D1606810BDB4
:103D1000002010BD406808B528B100F0F5FDD0F1D5
:103D2000010038BF002008BD10B50446406830B11E
:103D300000F0EAFD18B9606808B1043810BD002031
:103D400010BD00BF4068003018BF0120704700BFA1
:103D5000002280E806008261704700BF002380E8EF
:103D60000A00704708B5036801460BB1984708BDC3
:103D7000406810B18B690831984708BD014B03605A
:103D8000704700BF48B6000010B5034B04460360FF
:103D900000F04EFE204610BD48B60000F0B5DFF83A
:103DA00048C004460F4883B04FF0080E251D00267A
:103DB0004FF0FF37C4F800C0C4F808E02061666027
:103DC0002846E660009700F08BFC28463346A16841
:103DD000E26800F0E5FB2846216900F019FC204666
:103DE00003B0F0BD40420F0048B6000070B5094D69
:103DF00004462B6883420BD0061D3046A168E2685A
:103E0000002300F0CDFB3046216900F001FC2C605E
:103E100070BD00BF8010001010B4044C002323605C
:103E20008160C2605DF8044BFFF7E0BF80100010B6
:103E3000024B002201611A60FFF7D8BF801000100A
:103E400038B50C460546FFF7D1FF281D2146BDE8D1
:103E5000384000F0E7BC00BF00207047F8B58E186E
:103E6000B1420F4605460FD00C4601E0A64209D0EC
:103E70002B6828465B6A14F8011B98470130F5D17E
:103E8000E01BF8BDF01BF8BD0020F8BDF8B58E189A
:103E9000B1420F4605460FD00C4603E004F8010B73
:103EA000A64207D02B6828469B6A9847431CF5D149
:103EB000E01BF8BDF01BF8BD0020F8BD00207047E6
:103EC00000207047002070470020704710B5074B56
:103ED000044603F108023C3380E80C00406901F01D
:103EE000C9F8204600F012FD204610BD58B600006B
:103EF000A0F10400FFF7EABF10B50446FFF7E6FFA4
:103F0000204600F095FD204610BD00BFA0F1040042
:103F1000FFF7F2BF10B584B0044600F027FD0B4B4D
:103F2000002203F108013C3384E80A00626101A821
:103F30002246074901F0B8FD064901A801F078FAC8
:103F40006061FFF703FA204604B010BD58B60000C8
:103F500030B30000A0B6000000F04ABDA0F1480058
:103F6000FFF7FABF00F048BDA0F14800FFF7FABF25
:103F700038B504461D4600F015FD294604F14800F9
:103F8000FFF7C8FF054B204603F1080103F12002AB
:103F900054332160A264E36438BD00BFA8B60000BA
:103FA00010B5016943680446194400F053F804F160
:103FB0001400BDE81040FFF7D5BE00BF10B50446A1
:103FC00000F04CF804F114000021BDE81040FFF7A8
:103FD000C5BE00BF38B50D46044600F03FF8256168
:103FE00000F0B8FA41192046BDE8384000F032B878
:103FF00008B503689B68984708BD00BF10B5044A20
:10400000044640F8042B00F073F9204610BD00BFB1
:1040100028B7000010B5054B044640F8043B00F0FB
:1040200067F9204600F004FD204610BD28B70000C7
:1040300010B5064A0023044680E80C008360C36084
:10404000034800F005F9204610BD00BF28B7000066
:10405000F13F00000246043000F028B9043000F0BF
:1040600047B900BF10B5084B0446186882B00B462C
:10407000C06806490092224601F0E4F902B0BDE8AA
:104080001040FEF731BF00BFC401001038B7000078
:104090000FB400B5064A83B004AB126853F8041B92
:1040A000D0681A46019302F011FA012000F07CFF5B
:1040B000C401001000F0C4B838B50D46044600F045
:1040C00073F9013509D02046002100F089F9204616
:1040D0000321BDE8384000F07FB938BD38B50D4642
:1040E000044600F061F901350FD0236801330DD08B
:1040F0002369626820461A60012100F071F92046A8
:104100000221BDE8384000F067B938BD02480349D4
:104110002422FFF7A7FFEBE768B2000080B200009F
:1041200070B50D461646044600F03EF9013514D030
:104130002368013312D066B9236962681A60204689
:10414000012100F04DF920460221BDE8704000F049
:1041500043B9E36862681A60F1E770BD0348044937
:104160002422FFF77FFF002EE6D0F2E768B20000BE
:1041700080B20000431C10B5044618D00B68581CD0
:1041800004D10FE051F80C3F5A1C0BD09C42F9D1DE
:104190002046896800F046F920460221BDE810401B
:1041A00000F068B90248BDE81040FFF771BF10BDCC
:1041B0006CB70000884208B50AD0431C07D0013113
:1041C00006D00448FFF764FF4FF0FF3008BD0846F3
:1041D00008BD00BF80B700000B685A1C04D107E07F
:1041E00051F80C3F5A1C03D08342F9D148687047FC
:1041F0001846704708B5431C0CD00B685A1C04D1F4
:1042000009E051F80C3F5A1C05D09842F9D1486892
:10421000411C00D008BD0348FFF73AFF4FF0FF30C4
:10422000F8E700BF94B7000030B585B018246D469C
:1042300020462946ABBE0446204605B030BD00BF2F
:10424000024B186800F00100704700BFF0ED00E07D
:1042500010B5044600F04AF9014B1C6010BD00BFC8
:104260008810001070B500F095F90E4C0E4E2368C2
:1042700073B11D6800F06EF9281A00280CDC216863
:1042800032688B682360002AF2D048689047EEE7D6
:10429000BDE8704000F076B92368BDE8704018684A
:1042A00000F066B9841000108810001038B505467B
:1042B00072B60E4B01601C68426084B122688A1A93
:1042C000002A05DA0BE01A688A1A002A03DB1C466A
:1042D000A368002BF7D1AB60A56062B638BDAC60B7
:1042E00008461D6000F044F9F7E700BF8410001095
:1042F00008B572B6104B1A68824211D04AB1936861
:10430000834208D02BB19A68824205D01346002B15
:10431000F9D162B608BD134682689A6062B608BDDC
:1043200092681A6022B1106800F022F962B608BDE6
:1043300000F028F9EDE700BF8410001038B50546FD
:1043400000F008F9044600F005F9001BA842FAD372
:1043500038BD00BF08B5044906F09AFD06F0E8FE36
:10436000BDE80840FFF7EABF002474494FF47A73B0
:1043700003FB00F0FFF7E2BF431C10B5044608D072
:104380002046002100F04EF804F01F040120A04058
:1043900010BD034803491522FFF764FEF0E700BF94
:1043A000D4B70000E8B7000038B504464B1C0D46F2
:1043B00021600FD00846FFF7DFFF25F01F0505F14C
:1043C000180105F11C0205F114036060A560E160AD
:1043D0002261636138BD00BF006800F04BB800BFC8
:1043E00038B50368044601330D4610D045B1012DA0
:1043F00005D1A368626819680A431A6038BD38BDE0
:10440000A36861681A6822EA01021A6038BD03488D
:1044100003492C22FFF726FEE8E700BF68B2000040
:10442000E8B7000038B5431C04460D4617D004F128
:104430006040A0F51C2000F00F035B0003229A40AF
:104440009D4003099B0003F1804303F53033196855
:1044500021EA02021A601A6815431D6038BD03483C
:1044600003491522FFF7FEFDE1E700BFD4B70000C6
:1044700050B8000038B5431C04460D462CD004F15A
:104480006040A0F51C2000F01F04C5F3800202FA72
:1044900004F443099B0003F1804303F53033996E24
:1044A00021EA04019966996E0C439C669AB900F062
:1044B0000F035B0003229A4005FA03F30009800012
:1044C00000F1804000F53030016C21EA0202026404
:1044D000026C1343036438BD024803492022FFF7EE
:1044E000C1FDCCE7D4B7000050B80000134A38B57E
:1044F00013680BBB12490124D1F8C4501460114A4F
:10450000114845F40005C1F8C4501367036801F170
:10451000437101F5F45103319B08A1FB03039B0C8C
:10452000013B022151600420D36008495460FEF72A
:1045300061FC074B10221A6038BD00BF8C100010C0
:1045400000C00F40004009405C01001065420000BF
:1045500000E100E008B5044B1B680BB9FFF7C6FF8C
:10456000024B986808BD00BF8C1000100040094045
:10457000034B98615A6942F001025A61704700BFCB
:1045800000400940024B5A6922F001025A6170470B
:1045900000400940014B01221A6070470040094069
:1045A0002DE9F0410468074660680E46043920F0A2
:1045B00002000C2915469846606001D8032A05D9E7
:1045C000114812496422FFF74DFD3C68206805F050
:1045D0000103013E46EAC316C5F34005000C46EA56
:1045E00085150004284320606368B8F1000F23F0AC
:1045F0000D030CBF0022042213436360636843F081
:1046000002036360BDE8F0812CB9000068B90000C6
:10461000F8B503682E4A5C68934224F0020407460A
:104620005C6042D002F5B022934230D0294B08465C
:104630001E6806F0D9FB0224054603E00234B4F5F7
:10464000807F40D0B6FBF4F006F0CEFB294606F0A2
:10465000D3FC4FF07C5106F013FB05F085FF00F012
:10466000EBFB06F06FFAFF28E8DC3B6801381C61C1
:104670001A6822F47F0222F47F421A601A6842EA22
:10468000002018605A6842F002025A60F8BD124BCE
:10469000D3F8AC2122F44062C3F8AC21D3F8AC21AA
:1046A00042F48062C3F8AC21C0E70B4BD3F8A821D9
:1046B00022F44012C3F8A821D3F8A82142F48012B2
:1046C000C3F8A821B2E70548BDE8F840FFF7E0BC11
:1046D000000003405C01001000C00F40D0B9000092
:1046E0002DE9F04F044683B0084689464449904678
:1046F0001F460C9EFFF77EFD42490346404601934C
:10470000FFF778FD404905463846FFF773FD3F49FE
:1047100083463046FFF76EFD019B294682461846C8
:10472000FFF748FD514605465846FFF743FD014651
:104730002846FFF73FFD421C20605AD0344B984278
:104740004FD003F5B023984223D0731C2BD02046C2
:10475000002201230821FFF723FF20462D49FFF700
:1047600057FF236848465A68254942F002025A60BA
:10477000FFF700FD40462349FFF7FCFC384622497D
:10478000FFF7F8FC2149304603B0BDE8F04FFFF7D2
:10479000F1BC03F5E823D3F8C42042F40012C3F8B7
:1047A000C420731CD3D10022134620460821FFF7F2
:1047B000F7FE20461749FFF72BFF236848465A6843
:1047C0000F4942F002025A60FFF7D4FC40460D49FF
:1047D000FFF7D0FC0C49384603B0BDE8F04FFFF7B7
:1047E000C9BC0D4BD3F8C42042F48062C3F8C42086
:1047F000ABE70A480A494422FFF734FC20689DE7EA
:104800000CBA0000B4B80000F0B8000048BA0000CC
:104810000000034040420F0000C00F40F8B9000004
:1048200068B900000368DA689007FCD59960DA6817
:104830005207FCD598687047094A8368026053B1F3
:10484000084B1A68824201D106E01A465368834237
:10485000FBD143685360704742681A60704700BFDD
:1048600090BA0000901000100C4A836810B50446FE
:10487000026053B10A4B1A68904201D10AE01A460D
:1048800053689C42FBD163685360204600F0D0F827
:10489000204610BD42681A60F7E700BF90BA0000DA
:1048A00090100010074B10B400240273816080E860
:1048B000180019B1044B1A68186042605DF8044B87
:1048C000704700BF90BA0000901000100D4B70B5FB
:1048D0001C6806460D4614B912E0646884B1A368EA
:1048E00031462A461846002BF7D001F082F90028FD
:1048F000F3D1A06801F075F9A842EED1204670BD51
:10490000002070BD90100010007B704710B5074B61
:10491000044603F108023433226040F8043FFFF7F5
:104920008BFF2046FEF780FB204610BD98BA0000A2
:10493000A0F10400FFF7EABF094B10B503F108022C
:1049400004463433226040F8043FFFF775FF2046E9
:10495000FEF76AFB204600F06BF8204610BD00BF52
:1049600098BA0000A0F10400FFF7E6BF074B10B5AE
:104970000022044640F8043BFFF794FF044B204616
:1049800003F10802343384E80C0010BD08B30000C2
:1049900098BA0000C1EBC10100EB81000C30FFF7B9
:1049A000E1B900BFF8B5104B0025044680E82800A7
:1049B0000E46856029460C301746FFF7C9F929468F
:1049C00004F12800FFF7C4F9251D4FF416533146B2
:1049D0003A4663642846FFF785F82846224603498D
:1049E000FEF76AFF2046F8BDC0B1000095490000FF
:1049F0000430FEF771BF00BF10B504300C46FEF75F
:104A0000C1FF204610BD00BF10B5002814BF0446EA
:104A10000124204600F048FE30B9044B1B680BB956
:104A200000F09AFA9847F4E710BD00BF9410001008
:104A300008B100F041BE704737B505464A400C4604
:104A40006818032CC4EB0000154B0AD900685A43C0
:104A500001900198043C584380EA106043435A4057
:104A6000EEE7880801F00301022905EB800407D076
:104A7000032902D001290AD105E0A17882EA014286
:104A8000617882EA012215F820104A405A4382EAEE
:104A9000523203FB02F080EAD03003B030BD00BFD9
:104AA00095E9D15B03460846194600F067BAFFF75F
:104AB000BFBFFFF7A9BF08B500F04EFA08B500F078
:104AC0004BFA08B500F048FA012A10B502D10A786D
:104AD000027010BDBDE8104000F013BE08B5521AB8
:104AE000FFF7F2FF08BD0000044B984204D00023FA
:104AF0008360016008440373704700BF9810001082
:104B0000134B10B59842044602D91248FFF7D9FF5B
:104B1000884203D94B009C4238BF1C4604F11D0358
:104B2000B3F5805F04F10D000CD98C420AD904F56D
:104B30008054C3F30B03064AE41A944228BF144678
:104B400004F10D00FFF760FF00224460826010BD99
:104B5000FCFFFF3F12BB0000FFF76ABF054A10B51C
:104B6000904206D08268541E002A846001DCFFF760
:104B7000F3FF10BD9810001013B50446006801A99A
:104B80000C38FFF7EBFF204602B010BD88422DE93C
:104B9000F04105460C4601D10D4E15E018B914B18F
:104BA0000C48FFF78BFF671B00213846FFF7A8FF73
:104BB00000F10C068046294630462246FFF78EFF5C
:104BC00040463946FFF790FF3046BDE8F08100BF10
:104BD000A4100010C5BB000070B5054616460C4673
:104BE00021B1084600F0FDFF211801E04FF0FF3130
:104BF000204632464FF00003FFF7C8FF28602846E2
:104C000070BD00000B29F8B5064602D9FB23174AF0
:104C100005E0174B5F5C384605F094FC13E0002B71
:104C20000DDD581052F8204002EB80058C4237BF52
:104C3000C0EB030303462A1D03F1FF33EFE71768B8
:104C4000384605F06FFC044630680D4605F08CFCD4
:104C500002460B462046294605F0DAFC00F05CF8D7
:104C600005F098FF70603846F8BD00BF34BC000006
:104C700024C000002DE9F34B0A9E04461E444B68F5
:104C80000D469E4293463BD3086805F06DFCCDE986
:104C90000001304605F046FCDDE9002305F0E2FDA9
:104CA000064658460F4605F03DFC8046894630468C
:104CB000394642464B4605F031FFB0B130463946E1
:104CC00000F0BAF8124B002205F0F0FA05F062FF8E
:104CD0004FEA4B0B58452CBF014659462846FFF773
:104CE00091FF0123237060600DE0DDE90023404661
:104CF000494605F08DFC00F09FF805F04BFF686019
:104D0000002323706360204602B0BDE8F08B00BF33
:104D10000000F03F000000002DE9F84FC1F30A57F2
:104D2000A7F2FF36132E02460B4604460D4689466F
:104D30008A46804622DC002E54DB3D4F374107EA8D
:104D4000010C5CEA000C1ED037A3D3E9002305F068
:104D5000ADFA0022002305F0EBFE58B1002D05DD71
:104D60004FF4801A4AFA06F606EB050A2AEA070902
:104D70004FF0000840464946BDE8F88F332E06DD67
:104D8000B6F5806F43D010461946BDE8F88FA7F2FC
:104D9000134C4FF0FF3B2BFA0CFB1BEA000FF2D039
:104DA00021A3D3E9002305F081FA0022002305F0B6
:104DB000BFFE0028DED0002D0DDD142E09D0C7F572
:104DC000866703374FF0010808FA07F818EB040864
:104DD00001D305F1010A28EA0B08D14640464946AD
:104DE000BDE8F88F10A3D3E9002305F05FFA002295
:104DF000002305F09DFE0028BCD0002D0DDB55EAF8
:104E0000040808D0DFF82C904FF00008B2E705F056
:104E10004DFABDE8F88FC146ACE74FF000084FF0FF
:104E20000049A7E7AFF300809C7500883CE4377E1B
:104E3000FFFF0F000000F03F2DE9F84FC1F30A57C4
:104E4000A7F2FF36132E02460B4604460D4689464E
:104E50008A4680461CDC002E40DB3D4F374107EA86
:104E6000010C5CEA000C18D037A3D3E9002305F04D
:104E70001DFA0022002305F05BFE28B1002D42DB65
:104E80002AEA07094FF0000840464946BDE8F88F76
:104E9000332E06DDB6F5806F31D010461946BDE8D9
:104EA000F88FA7F2134C4FF0FF3B2BFA0CFB1BEAD9
:104EB000000FF2D024A3D3E9002305F0F7F9002274
:104EC000002305F035FE0028DED0002D22DB28EA85
:104ED0000B08D14640464946BDE8F88F1AA3D3E9EE
:104EE000002305F0E3F90022002305F021FE00284D
:104EF000CAD0002D1CDB4FF00008C146C4E705F006
:104F0000D5F9BDE8F88F4FF4801A4AFA06F606EB99
:104F1000050AB5E7142E14D0C7F5866701230337B9
:104F200003FA07F717EB040828BF05EB030ACEE7DF
:104F300025F00042074B224318BF99464FF0000866
:104F4000A2E705F1010AC2E79C7500883CE4377EC0
:104F5000FFFF0F000000F0BF08B5062000F088FD3D
:104F60000120FEF7DBF90028B8BF40427047014638
:104F700000200246034602F0F5BA000070B5064C68
:104F800006460D4613462CB131462A46022002F051
:104F9000E9FA70BD204670BD65750000014B1868C8
:104FA000704700BFC401001008B5074B044613B199
:104FB000002102F033FB054B1868836A03B1984760
:104FC0002046FEF7ABF900BF1D76000094C000003C
:104FD00070B505460C4609B9002070BD18B183694B
:104FE0000BB900F063F9204B9C4201D16C6808E0DA
:104FF0001E4B9C4201D1AC6803E01D4B9C4208BF94
:10500000EC68B4F90C30002BE6D02846214600F0BD
:10501000BDF8236B064633B12846216A984700281D
:10502000B8BF4FF0FF36A3891B0603D52846216978
:1050300000F094FB616B41B104F14403994202D04A
:10504000284600F08BFB00236363A16C21B1284646
:1050500000F084FB0023A36400F092F90023A381F5
:1050600000F08FF9304670BD30C0000050C0000025
:1050700070C00000024B01461868FFF7A9BF00BFCF
:10508000C40100108A892DE9F041054610070C463D
:1050900057D44B68002B02DC0B6C002B18DDE66A42
:1050A000B6B102F48052002392B22F682B600AB18D
:1050B000626D10E0216A28460123B047411C024678
:1050C00009D12B683BB11D2B01D0162B46D12F6087
:1050D0000020BDE8F081A3895B0705D56368D21A7B
:1050E000636B0BB1236CD21AE66A2846216A00234F
:1050F000B047461CA28905D12B681BB11D2B01D0DE
:10510000162B19D1002363602369D104236004D5D1
:10511000421C01D12B6803B96065616B2F600029C7
:10512000D6D004F14403994202D0284600F016FB81
:1051300000206063BDE8F08142F04002A281BDE83A
:10514000F0810E69002EC3D00B680E60C6EB030819
:1051500093070CBF4B6900238B6012E0A3894FF0CB
:10516000FF3043F04003A381BDE8F081A76A2846E1
:10517000216A32464346B8470028EFDD0644C0EBBB
:105180000808B8F1000FF1DCA2E7000038B50B69A0
:1051900005460C46DBB118B183690BB900F086F8FF
:1051A0000C4B9C4201D16C6808E00B4B9C4201D136
:1051B000AC6803E0094B9C4208BFEC68B4F90C30C2
:1051C0002BB128462146BDE83840FFF75BBF0020E1
:1051D00038BD00BF30C0000050C0000070C00000EB
:1051E000014620B9044B0549186800F0CDB9044BBD
:1051F0001868FFF7CBBF00BF94C000008D510000BE
:10520000C4010010F8B5074600F1480494B1A56840
:105210006668013E0CD4AB89012B07D9B5F90E3075
:10522000013303D038462946FFF7B0FF6835F0E771
:105230002468EBE7F8BD0000002310B504460360C6
:105240004360836081814366C281036143618361FE
:1052500019465C30082200F078FA054B246263623C
:10526000044BA362044BE362044B236310BD00BFF5
:10527000455B00006B5B0000A35B0000C75B0000A8
:1052800070B54B1E68255D430E4605F1740100F0B4
:10529000A9FA044640B1002180E842000C30A06029
:1052A00005F1680200F051FA204670BD836910B51F
:1052B000044633BB8364C3640365124B124A1B6804
:1052C0008262984204BF0123836100F01FF860608E
:1052D000204600F01BF8A060204600F017F80421DB
:1052E000E06000226068FFF7A7FFA06809210122A3
:1052F000FFF7A2FFE06812210222FFF79DFF0123C2
:10530000A36110BD94C0000005520000F8B51B4B0E
:1053100007461E68B36913B93046FFF7C7FF483622
:10532000B4687368013B04D4B4F90C5075B16834A7
:10533000F8E733682BB938460421FFF7A1FF306046
:1053400008B13668ECE70C233B60F8BD4FF6FF73FD
:10535000E3810123A38165662560A5606560256101
:105360006561A56104F15C002946082200F0EDF9B1
:105370006563A563A564E5642046F8BD94C000009C
:105380007047704738B5084D084C641BA41005EBF6
:10539000840524B155F8043D013C9847F9E7BDE880
:1053A000384005F001BF00BF0C02001010020010D1
:1053B000F7B50F46114601AA054602F0F5FF06466D
:1053C00008B9002029E02846FFF7A0FF044600287E
:1053D000F7D028463946019A4FF4DB7300F056FAAD
:1053E000002806DA0025FFF7CBFFA581FFF7C9FFEC
:1053F000E7E70B4BE08163620A4BA681A3620A4B8D
:105400002462E362094B2363F30505D52846214650
:105410000022022300F028F8204603B0F0BD00BFB0
:10542000455B00006B5B0000A35B0000C75B0000F6
:105430000A460349034608681946FFF7B9BF00BF8B
:10544000C40100100EB403B5014603AB054853F880
:10545000042B0068019300F035FF02B05DF804EB07
:1054600003B07047C401001000F000B82DE9F84304
:105470000C4691461E46054618B183690BB9FFF7E5
:1054800015FF3E4B9C4201D16C6808E03C4B9C42AE
:1054900001D1AC6803E03B4B9C4208BFEC68A38998
:1054A00003F48473B3F5847F03D128462146FFF7C4
:1054B0006DFED4F82C801D23B8F1000F2BD0012EE7
:1054C00004D0022E2BD056B3162324E028462146C2
:1054D000FFF75CFEA28902F4805292B20AB1606DBD
:1054E00005E0216A28463346C047411C14D0A389F1
:1054F0005A0706D56368C01A636B4BB1236CC01A98
:1055000006E01B0704D5236813B122699B1A1844CF
:105510008144002603E02B604FF0FF372BE0236926
:105520001BB92846214600F073F828462146FFF7AC
:105530002DFE07460028EFD12846216A4A46334609
:10554000C0470130E8D0616B41B104F14403994296
:1055500002D0284600F002F900236363236900218A
:105560002360A389616023F40263A38104F15C00DA
:10557000082200F0EAF83846BDE8F88330C00000A1
:1055800050C0000070C000002DE9F84380468946F5
:1055900000F14804002694B1A5686768013F0CD467
:1055A000AB89012B07D9B5F90E30013303D0404642
:1055B0002946C84706436835F0E72468EBE73046DC
:1055C000BDE8F88370B50E4B0E4D0024ED1AAD10FA
:1055D0001E46AC4204D056F8242090470134F8E728
:1055E00005F0DCFD084D094B0024ED1AAD101E46F8
:1055F000AC4204D056F8242090470134F8E770BD3F
:1056000004020010040200100C020010040200103A
:10561000F0B58B8991B09E0705460C4625D4B1F9AB
:105620000E10002908DAA389002713F0800F14BF99
:1056300040264FF480660DE001AA02F0EDFE00283E
:10564000F1DB029F4FF4806607F47047B7F5005115
:105650004F424F412846314600F0C4F860B9A38953
:105660009A051DD443F00203A38104F1470323608C
:1056700023610123636113E00A4BAB62A3892060BD
:1056800043F08003A381206166614FB12846B4F9DD
:105690000E1002F0D3FE18B1A38943F00103A381D9
:1056A00011B0F0BD05520000024B0146186800F031
:1056B00099B800BFC4010010024B0146186800F001
:1056C0004DB800BFC401001010B5C9B202449042E9
:1056D000034605D01C7801308C42F8D1184610BD25
:1056E000002010BD30B50023934208D0C55C0133C3
:1056F000CC1814F8014CA542F6D0281B30BD002070
:1057000030BD10B50023934203D0CC5CC4540133A8
:10571000F9E710BD814270B501D300230EE08C186B
:10572000A042FAD28518134613F1FF3305D3514234
:105730006618F65C2944CE54F6E770BD934203D058
:10574000CC5CC4540133F9E770BD02440346934274
:1057500002D003F8011BFAE77047000030B50029BA
:105760003CD051F8042C0B1F1D49002AB8BF9B18D0
:105770000A680C4612B95A600B6030BD93420DD2D4
:1057800019685818904203D15A5811444268196058
:105790005A60236030BD994203D80A4651680029F7
:1057A000F9D1146815199D420AD11B682344D018F9
:1057B0008842136012D10868034413604B680CE000
:1057C00002D90C23036030BD18681C188C4203D129
:1057D0000C684968204418605960536030BD00BFB0
:1057E000AC10001070B5CD1C25F0030508350C2D4C
:1057F00038BF0C25002D06463FDB8D423DD3214BA3
:105800001C6818462146A1B10B685B1B0ED40B2BFC
:1058100003D90B60CC18CD501FE08C4202D16268D6
:1058200002601AE04B6863600C4616E00C4649685B
:10583000E9E7154C23681BB9304600F051F82060A9
:105840002946304600F04CF8431C014615D0C41CD4
:1058500024F0030484420AD1256004F10B00231DC7
:1058600020F00700C31A0BD05A42E25070BD3046F8
:10587000611A00F035F80130EED10C2333600020BE
:1058800070BD00BFAC100010A810001038B5074C58
:10589000054600202060084611461A46FDF700FC28
:1058A000431C02D1236803B12B6038BD481100109E
:1058B0000FB40A4B13B51C6824B1A36913B9204671
:1058C000FFF7F4FC05AB2046A168049A019300F0B1
:1058D000F9FC02B0BDE8104004B07047C4010010EC
:1058E00038B5064C0023054608462360FDF702FD47
:1058F000431C02D1236803B12B6038BD481100104E
:1059000000290CBF022200224FF4806300F000B88F
:105910002DE9F0411E463D4B04461D680F4690465A
:1059200025B1AB6913B92846FFF7C0FC384B9C4240
:1059300001D16C6808E0374B9C4201D1AC6803E0B0
:10594000354B9C4208BFEC68B8F1020F59D8002EC5
:1059500057DB28462146FFF719FC00236360A3614B
:10596000A3891B0603D528462169FFF7F7FEA38903
:10597000B8F1020F23F08303A38112D037BB002EAE
:1059800008BF4FF480663046FFF78EFE0746C8B961
:105990004FF48060FFF788FE074688B94FF0FF306C
:1059A00000E00020A38943F00203A3810023A36049
:1059B00004F147032360236101236361BDE8F081A3
:1059C0004FF48066A38943F08003A381B8F1010FEF
:1059D00005D1A38943F00103A3817342A3610F4B57
:1059E000AB62A389276003F0080080B2276166617B
:1059F00048B113F0030F18BF0026A6600020BDE8D1
:105A0000F0814FF0FF30BDE8F08100BFC40100100D
:105A100030C0000050C0000070C0000005520000FF
:105A20001F2938B505460C4604D9162303604FF0EC
:105A3000FF3038BD426C12B152F821304BB92846C4
:105A400000F030F8224601462846BDE8384000F014
:105A500017B8012B0AD0591C03D11623036001206B
:105A600038BD002542F8245020469847002038BD14
:105A7000024B01461868FFF7D3BF00BFC4010010F6
:105A800038B5074C0023054608461146236005F04B
:105A90007DFB431C02D1236803B12B6038BD00BFDE
:105AA0004811001005F06ABB0EB400B54FF4027146
:105AB0009CB0ADF814106FF00041049107914FF6BF
:105AC000FF711DABADF81610084953F8042B029076
:105AD0000690086802A9019300F0FEF8029B0022DC
