:1000000000800010651B0000951B0000971B00007E
:10001000991B00009B1B00009D1B000000000000BE
:10002000000000000000000000000000E9060000E1
:10003000A11B000000000000570700008F07000010
:10004000A71B0000A71B0000A71B0000A71B0000A8
:10005000A71B0000A71B0000A71B0000A71B000098
:10006000A71B0000A71B0000A71B0000A71B000088
:10007000A71B0000A71B0000A71B0000A71B000078
:10008000A71B0000A71B0000A71B0000A71B000068
:10009000A71B0000A71B0000A71B0000A71B000058
:1000A000A71B0000A71B0000A71B0000A71B000048
:1000B000A71B0000A71B0000A71B0000A71B000038
:1000C000A71B0000A71B0000A71B000010B5054CD4
:1000D000237833B9044B13B10448AFF300800123F4
:1000E000237010BD100200100000000088A3000063
:1000F00008B5064B1BB106480649AFF30080064819
:10010000036813B1054B03B1984708BD0000000018
:1001100088A300001402001010020010000000006C
:10012000154B002B08BF134B9D46A3F5803A0021C9
:100130008B460F461348144A121A03F0E8FD0F4B82
:10014000002B00D098470E4B002B00D09847002082
:10015000002104000D000D48002802D00C4803F0D7
:1001600012FA03F03BFD2000290001F0C1FC03F06E
:1001700027FA00BF00000800008000100000000007
:100180008513000010020010A81100108735000030
:100190009D390000014B0360704700BFA09700002D
:1001A000014B0360704700BFE89B000010B5034B94
:1001B0000446036003F040F9204610BDA0970000FC
:1001C000074B10B503F1180203604C3304468264F8
:1001D000C364483002F0F4FB024B2046236010BD9C
:1001E000509C0000A0970000A0F14C00FFF7E8BF72
:1001F000A0F14800FFF7E4BF10B50446FFF7E0FFA9
:10020000204603F019F9204610BDA0F14C00F3E799
:10021000A0F14800F0E700002DE9F341134A0F4632
:100220008046516810686B4607F1080603C33046E4
:1002300003F00BF900250446EBB2FA1D9A420ADBE3
:10024000072B9ABF02AAD21808EB030212F8082C57
:100250000135E254F0E706482146F2B200F0F6F923
:10026000204602B0BDE8F04103F0E6B8A8970000D0
:100270002C02001000B5ADB01822002103A803F035
:1002800046FD03A8124902F079FC09A81149124A57
:1002900000F08AF809A800F0D3F84FF4FA7002F0E1
:1002A00057FD09A800F0D8F80C4A03460A21684611
:1002B00003F0C4FEC1B26846FFF7AEFF049A069B86
:1002C00028201A6002F044FD049A079B1A60E1E7B7
:1002D00037C0092008C0092009C00920B0970000D4
:1002E00037B5104B104D0093353301930F4C363B0F
:1002F00028460F490F4A00F079F928460E4D22464C
:100300000E4903F09DF828460D490E4A002302F0DD
:10031000A9FB0D492846224603B0BDE8304003F052
:100320008FB800BF10C009202C020010C8000010B8
:1003300012C0092011C0092070020010A1010000A4
:1003400002C0092003C00920C101000007B5024610
:10035000086849686B4603C311F0010F4FEA61005A
:1003600018BF1158009B104418BFCB58984703B0D2
:100370005DF804FB02F09ABB10B5044602F0A0FB46
:10038000204602F0ABFB40F25713C4F884005843F8
:1003900044F62063B0FBF3F0C4F888002046BDE8C3
:1003A000104002F0A7BB0000F0B5044685B004F190
:1003B0000C050F46164602F06DFB18222846002158
:1003C00003F0A5FC2846394602F0D8FB314604F17B
:1003D000240002F023FA204602F072FB204602F0CD
:1003E00089FB144B002500930195134F6B4603CBFB
:1003F00004F14006A165012160650A463046246586
:100400006766E56401F09CFC0C4B0395029302AB1C
:1004100003CBE466206761673046C4F88070A56648
:100420000221012201F08CFCE369226920461A6056
:1004300005B0F0BD750300004D0300007903000016
:100440008369026910B504461A600A2002F074FC40
:10045000E36922691A6010BDD0F88800704770B552
:10046000436A044680690E461860760001201546EE
:1004700002F062FC06F07E0141F00101204602F02C
:1004800059FA012002F058FC2946204602F052FA9F
:10049000012002F051FC236AA26901201A60BDE824
:1004A000704002F049BC70B5436A044680690D464D
:1004B00018600120164602F03FFCE91041F080016F
:1004C000204602F037FA6D01012002F035FCE9B256
:1004D00041F01001204602F02DFA012002F02CFC20
:1004E0003146204602F026FA012002F025FC236A5C
:1004F000A26901201A60BDE8704002F01DBC036AC9
:10050000826910B51A60026BC36B04461A606420DE
:1005100002F012FCA36B226B64201A6002F00CFC48
:10052000204636210422FFF79AFF2046362100227A
:10053000FFF795FF204636210022FFF790FF204667
:100540000121AA22FFF78BFF20460221AA22FFF7F2
:1005500086FF20460321AA22FFF781FF20460421BF
:10056000AA22FFF77CFF20460D210122FFF777FF2B
:10057000204640F202218022FFF795FF204640F2FC
:1005800003210022FFF78FFF204640F20621802240
:10059000FFF789FF20464FF402711022FFF783FF17
:1005A00020463A217822FFF75AFF20463E2140227A
:1005B000FFF755FF20463F210022FFF750FF20465E
:1005C0004FF400710022FFF76EFF20460021012248
:1005D000FFF745FF204636210422FFF740FF204663
:1005E00036210022BDE81040FFF739BF73B504463D
:1005F0004FF0FF350095182604F1140502F048F974
:1006000032462846002103F082FB2846069904F171
:100610002C0502F0B3FA32462846002103F077FB9E
:100620002846079902F0AAFA00222046082102F083
:100630006DF92046044902F075F92046FFF75FFF87
:10064000204602B070BD00BF20A10700F8B50F46DC
:100650000021054616460A46FFF725FF28460121D8
:100660003246FFF720FF0024E3B2B34207D2A11CB9
:100670003A5D284689B2FFF716FF0134F4E72846B1
:100680001B210122BDE8F840FFF7E9BE80F309888D
:100690007047EFF309807047684680F30988414846
:1006A0000078C00714BF0220032080F3148870472D
:1006B000DFF8F4C0EFF305831B0618BF6047EFF3C4
:1006C0001483DB0708BF604700DF7047DFF8DCC03A
:1006D000EFF305831B0618BF6047EFF31483DB07B6
:1006E00008BF604700DF7047EFF30980816911F8A8
:1006F000021CF9B990E80F10E047EFF3098C8CE881
:1007000007002B4B93E80600914200F0108039B1AE
:100710002CE9F00FC1F828C00CB400F0A5FB0CBC0C
:100720001A60D2F828C0BCE8F00F8CF309886FF08B
:10073000020E704710B51F4A1268914200F20A80FB
:100740001D4C54F8214090E80F10A047EFF3098C9E
:100750008CE80F0010BD00F019FB154B93E8060064
:10076000914200F01180EFF3098C2CE9F00FC1F8F1
:1007700028C00CB400F078FB0CBC1A60D2F828C07A
:10078000BCE8F00F8CF309886FF0020E704700F0A0
:100790004DFBFFF7E2BF00F047FB00F047FBFFF720
:1007A000DCBF0000B6970000C10A0000DB0A0000B1
:1007B000D002001000000000FCFFFFFF08B5044855
:1007C00000F014FE034B58600223437008BD00BFC5
:1007D000280E0010D0020010074B01201B88984201
:1007E00007D8064A02EB800252F8042C12B10130FD
:1007F000F5E70020704700BFB4970000A80B001079
:1008000030B5002401250470457081704460846017
:10081000C46004618482C4820483448380F82040DD
:100820001146BDE8304000F0BFBE0000024B5860EA
:1008300002234370704700BFD002001070B5044619
:1008400018B9BDE87040FFF7B9BF0B4DA278286812
:10085000012683789A4207D900F0DAFD2B685E7092
:1008600002236C60637070BD667021460348BDE86A
:10087000704000F0A3BD00BFD0020010280E001091
:1008800038B50D46014678B14FF6FF729042074CDD
:1008900002D0206800F0C6FD236805485D7000F0B6
:1008A000A5FD02236060437038BD00BFD002001078
:1008B000280E0010024B186800B1C078704700BFC6
:1008C000D002001010B588B9174B1B6899701748F3
:1008D00043689B788B4222D9134C216800F06EFD4F
:1008E000236801225A70FFF769FF18E0104B1B883C
:1008F000984216D80F4B013853F820408CB10A4B60
:10090000A1701B689C42E2D0204600F0FFFD637896
:10091000012B04D1054800F069FDFFF78FFF00208F
:1009200010BDFF2010BD00BFD0020010280E001027
:10093000B4970000A80B001070B5184D18B12B68C3
:10094000DB78984213D12E6800247470FFF7A1FE63
:10095000B06200F089FA2B68114AD9782C6001390D
:1009600042F82140DC62FFF729FF204670BD0D4BA5
:100970001B8898420FD80A4C461E54F8265055B191
:10098000284600F0ADFD284600F0DAFD002044F8CE
:100990002600E86270BDFF2070BD00BFD0020010CD
:1009A000A80B0010B497000010B5284B1A8800233C
:1009B000934205D22649002041F823000133F7E78E
:1009C000244CFF23E370244B20461B8800216362E4
:1009D000224B234AE362FFF713FF224A002304213C
:1009E00011705360204A1170D360136193821F4AC3
:1009F0001460022262701E4A137053701D4B1B78E4
:100A0000D37000F07FF81C4B1A6842F47F021A6022
:100A10001B681B0203F07F43DB43B3FA83F3174ADF
:100A2000DBB21268C3F10803C2F302229A42A8BFE4
:100A3000531C6FF0807000FA03F3114A03F07F43F8
:100A4000116821F07F410B43136010BDB497000083
:100A5000A80B0010D8020010BC970000040C001076
:100A600059130000280E0010100E0010D0020010C4
:100A7000240B0010BE97000020ED00E00CED00E01C
:100A80001CED00E008B500F0B9F90C4B0028186027
:100A900012DB00F16040FF2200F5644002701A682A
:100AA0000121531102F01F0201FA02F29B0003F12F
:100AB000604303F561431A6008BD00BF14030010D2
:100AC000EFF3108172B6036801F001010BB11A68EF
:100AD000026001B962B61846704781420DD343687F
:100AE00099420AD2EFF3108272B603680B6001607C
:100AF00012F0010003D162B6704701207047002058
:100B000070470000034B00221A60034A1268DA8023
:100B1000704700BF0C030010C497000008B50F4BCE
:100B200059680F4B1A688A420E4A05D0D888196056
:100B300011680138014499809988138899420BD132
:100B4000074B002205481A6000F050FCBDE8084041
:100B50000146024800F032BC08BD00BF280E00105C
:100B60000C0300100C0E00100123103903708908CB
:100B70000023437083704360038143818381C1817B
:100B80007047000038B5838904461546002B35D0E0
:100B90004289101D54F8200001320860E18992B2A8
:100BA0009142628104BF002262816268F2B1627880
:100BB000022A1BD1204600F019FC0021054600F056
:100BC00019FD2389EA69191D44F821200133E289BE
:100BD0009BB29A42238108BF0023284608BF238185
:100BE00000F0AEFC2846FFF729FE05E0EFF3108287
:100BF00072B6013BA38162B6002038BD82B1426863
:100C0000084B1AB1196800F0D9FB05E01B68436076
:100C10005A6098600123437028460821FFF730FE90
:100C2000012038BDD0020010C2898089101A704797
:100C300008B500F099FCBDE8084000F095B883893C
:100C400010B50446EBB14389043350F823300B60F0
:100C50004378022B04D1002100F086FC00F084F8D8
:100C6000EFF3108372B6A389013BA38162B6638957
:100C7000E28901339BB29A42638104D100236381EC
:100C800001E0184610BD042010BD0000436870B597
:100C900004460E46002B4AD04578022D1CD0032D69
:100CA0000AD0012D5DD100F0A1FB1021044632468F
:100CB00000F0A3FC657034E00846FFF701FF05462D
:100CC00000284ED0204600F091FB2946044600F053
:100CD00091FC0123637024E000F088FB00210546AD
:100CE00000F088FC2389EA69191D44F82120EFF3FC
:100CF000108272B6A2890132A28162B6E289013302
:100D00009BB29A42238104BF0023238101232846FA
:100D10006B7000F015FC13482946BDE8704000F0E8
:100D20004DBB204600F00CFC0E482146F5E78089BB
:100D3000E189884210D22289151D44F82560EFF31D
:100D4000108572B60130A08162B6013292B28A4239
:100D500014BF2281238170BD0320BDE8704000F0E4
:100D6000FCBA70BD280E0010054B1B7823B9054B4B
:100D70004FF080521A607047034B01221A7070477F
:100D80001903001004ED00E01803001038B5184BEB
:100D9000184D18680123437000F03AFB6C78AA786C
:100DA000144BEAB103EBC403586802781AB91989E5
:100DB00000F08EFA07E0012A03D19968FFF766FF79
:100DC00001E000F0AFFAEB7801349C4208BF002448
:100DD000EFF3108372B6AB78013BAB7062B6DEE71F
:100DE0005C70054800F002FBBDE83840FFF71EBD0F
:100DF000D0020010240B0010280E0010084B4FF0FA
:100E0000FF301A68074B1A6000225A60072243F825
:100E1000042CD3F80C2D42F07F42C3F80C2D704700
:100E2000C097000014E000E07047000008B50B4BCD
:100E300018680123437000F0EBFAFFF76FFE084BD0
:100E40001A6801321A6000F013FB00F051F90548EE
:100E500000F0CCFABDE80840FFF7E8BCD002001073
:100E60000C0E0010280E0010084B1B68DA78012ABF
:100E70000AD0DA6A9B6A9A4203D81268044B9A42F3
:100E800002D0012000F069BA704700BFD002001004
:100E9000A52E5AE238B1830704D10378002B18BF7E
:100EA000002070470020704700B5DFF80CC000DF5D
:100EB000DFF808C000DFFEE76910000081100000C5
:100EC00030B50C4C00222368254633B11C89A14261
:100ED00003D31A46091B1B68F7E789B20360018137
:100EE00013B11C89611A19810AB1106030BD2860E4
:100EF00030BD00BF1C030010431C11D00B4B9842A7
:100F000011D80B4B4FF47A711B685A1E01FB00205D
:100F1000B0FBF3F04FF6FE73984228BF18467047B7
:100F20004FF6FF7070474FF6FE70704700093D00A6
:100F3000B897000038B5084C257855B9FFF734FD4F
:100F4000064BFF221B6828469A7000F008FA01231E
:100F50002370002038BD00BF1A030010D00200101B
:100F600010B5EFF305845CB9EFF31484E40703D400
:100F7000BDE81040FFF7DEBFDFF808C000DF10BD9E
:100F8000822010BD350F000010B588B0EFF3058446
:100F900034BBEFF3148404F00304022C0CD0032CB4
:100FA00016D0012C1ED008AC84F309880F4C24788D
:100FB000E40705D5022404E00C4C2478E4070BD4A4
:100FC000032484F31488BFF34F8FBFF36F8F03E0C4
:100FD000064C2478E40705D4DFF814C000DF02E0F3
:100FE000822000E0FF2008B010BD00BFB6970000CF
:100FF0008D1100002DE9F8438946044660B103686D
:1010000053B1B0F8048008F103039BB2062B03D858
:1010100083680BB1C2682AB9802000F0A0F90020D3
:10102000BDE8F8834363C26300F11005FFF7D4FB0A
:101030000B4E471E46F8275008F104012268E07461
:10104000C9B22846C4F82C90FFF7DAFB2846FFF710
:10105000F5FB56F82700034A836A5A63BDE8F88314
:10106000A80B0010A90E000008B5FFF723FC18B16B
:10107000024B013853F8200008BD00BFA80B001038
:1010800008B5FFF707FF38B1C078FFF755FCFF2818
:1010900014BF0020812008BD802008BD70B5054622
:1010A0000C46EFF3058686B9EFF31486F60706D4EF
:1010B000074E36781EB9BDE87040FFF79BBF284643
:1010C0002146DFF810C000DF70BD002070BD00BFFA
:1010D00020030010F50F0000830706D128B1016935
:1010E000C3680A68194610467047002000217047FF
:1010F000F8B5134B1C681F460CB32389013B2381B1
:101100002389E3B90F4B26681D683E6055B12B78E3
:10111000012B07D12846FFF787FD18B12846214645
:10112000FFF786FD6379012B04D120466189FFF723
:10113000C7FE01E0012323710EB13446E0E7F8BD9C
:101140001C030010080E001010B504460846DFF816
:101150000CC000DF84E80300204610BDD910000059
:1011600010B5044618B1016809B1406820B9802063
:1011700000F0F5F8002010BD0378002BF7D1043102
:10118000890089B2FFF7F0FC606810BD38B5104DDA
:101190002C78D4B921460F48FFF7E2FF0E4B2146C9
:1011A00018600E48FFF726FF0D4B214618602046B9
:1011B000FFF788FB0B4B1A68926A203282F309888A
:1011C0001C60FFF75FFC01232B70002038BD00BFBF
:1011D0002003001010010010080E0010180100106C
:1011E000040E0010D00200102DE9F04F0C4685B01F
:1011F0008046E8B10378012B1FD10846FFF77CFE3B
:1012000002A982B24046FFF7BDFC012806D10020AA
:10121000002C0246034618BF402003E0002002468F
:1012200003461020029904460D4616461F4608E064
:10123000802405460646074603E0002580242E4606
:101240002F462046294632463B4605B0BDE8F08F82
:101250007FB5044616460846EFF30581A9B101ADF6
:1012600000B10AB180230AE00378012BFAD102A968
:10127000FFF7E5FC042801D0019601E0102301935B
:1012800095E8070084E8070005E01146DFF80CC088
:1012900000DF84E80700204604B070BDE9110000BB
:1012A0007FB50A4B03A819684FF0FF32FFF7D0FF54
:1012B000039B102BF5D101A80499FFF745FF019B73
:1012C000002BEED002989847EBE700BF080E001005
:1012D00010B5038B42781943062A04460183438BD9
:1012E00004D101EA03029A4219D105E0052A16D178
:1012F00011EA030213D0428321EA0301218320462D
:1013000000F01EF90123204663700821628B00F073
:1013100074F921460248BDE8104000F04FB810BDF6
:10132000280E0010426810B57AB100F05FF804464C
:1013300000F006F901216170204600F05BF92146BA
:101340000448BDE8104000F039B8428801324280BC
:1013500010BD00BF280E0010FEE700F0CDB908B1A7
:1013600000F0CAB9704700000449054AC1F1805332
:1013700003F5F8439360D160704700BFA8110010D7
:10138000CC0000100020002104460D46094802F060
:10139000FAF802F023FC20462946FFF7E1FDFFF7AB
:1013A000E3FF05480021FFF779FEFFF7EDFD02F0AE
:1013B00007F900009D390000CC00001030B502781C
:1013C0008C78013A4368D2B22BB19D78A54202D302
:1013D00018465B68F8E7022A4B60416003D803B106
:1013E0009960886030BD00238B6030BD436802780F
:1013F0005968013A022A41604FF0000204D809B14D
:1014000088605A609A6000E05A6018467047000091
:10141000034B5A684260002282605860704700BFE8
:10142000280E0010114B10B5DA680AB19A8A0CE048
:1014300000248A1AC460D86003619A82848210BD35
:10144000002CF5D0A38A1A4423468A42DC68F7D3DD
:10145000C460D860C468036104B12061521A92B2BA
:101460008282998A8A1A9A8210BD00BF100E0010DB
:1014700038B5184DEB68002B2AD0AB8A013BAB8204
:10148000AA8A2ABB134BDC6814B3A3683BB161681A
:101490005960616809B18B6062600023A3600E48E7
:1014A0002146FFF78BFFA38AAB826378042B04D11C
:1014B0000A4B1A68E38A1344A38201236370E3682A
:1014C0000022EB6013B103491961E2602261D7E7A2
:1014D00038BD00BF100E0010280E00100C0E0010BA
:1014E00083682BB142685A6042685AB19360704772
:1014F000054B5A68824202D142685A6070470AB16D
:101500001346F6E7704700BF280E001038B5846810
:10151000054624B94378012B0ED1084C03E023780B
:101520000BB9A468FBE72846FFF7DAFF20462946F7
:10153000BDE83840FFF742BF38BD00BF280E00109D
:10154000036910B573B1C268DA60C2683AB1998AAA
:10155000848A2144998213610023C36000E09A8247
:101560000023036110BD000030B50E4AD578EFF3BB
:10157000108372B69378AB4207D20133937013781D
:101580005C1CAC4208BF0024147062B6AB4204D2AB
:1015900002EBC3035860996030BD0220BDE83040C3
:1015A000FFF7DBBE240B0010436AF0B5C46A23F0DA
:1015B000030323445A0748BF043B4FF0807203E9FA
:1015C0000600A3F14005A3F14402A3F10C06002795
:1015D00042F8047FB242FAD1C26943F8202CC378A2
:1015E0008562012B18BF024B016318BF2360F0BD59
:1015F000A52E5AE2836A19627047836A19625A6299
:10160000704700000C4A30B4936894681A46B4F1ED
:10161000805F0CD2094A03F1C40553F8044BAB4276
:1016200042F8044FF9D1044B4FF080529A601030C9
:1016300042F8201030BC704700ED00E0FCFFFF0FC7
:101640002B4A202370B4C2F8A031D2F8A0319806FA
:1016500045D4274B022100250124AA2055220B2620
:10166000C3F80411C3F8A8511946C3F8AC51C3F824
:101670000C41C3F88460C3F88C00C3F88C20C3F815
:101680008040C3F88C00C3F88C20D1F88830184A09
:101690005B01FAD50321AA205523C2F88010C2F8B5
:1016A0008C001146C2F88C30D1F88830104A13F003
:1016B000407FF9D00F4900230520C2F80801C2F885
:1016C000C410C2F8C831136870BC23F4704323F00F
:1016D0003A0343F4405343F03A0313607047D2F89F
:1016E000A0315906B5D4D2F8A0315906F7D5B0E7E4
:1016F00000C00F40DE87280400B599B072B63B49A0
:10170000684601F03BFA06A8394901F037FA0CA8FF
:10171000384901F033FA12A8374901F02FFA32E0C4
:101720000699039B019A01311A6059D00C990A9BC2
:10173000079A01311A604DD01299109B0D9A013110
:101740001A6041D0159B139A96201A6001F000FB95
:10175000009B013332D00699049B019A01311A6033
:1017600026D00C99099B079A01311A601AD0129958
:101770000F9B0D9A01311A600ED0169B139A96207A
:101780001A6001F0E5FA009B0133C9D11B481C49DE
:10179000242201F0B7F9C3E718481949242201F0BF
:1017A000B1F9EAE715481649242201F0ABF9DEE762
:1017B00012481349242201F0A5F9D2E70F48104935
:1017C000242201F09FF9C6E70C480D49242201F0BC
:1017D00099F9B7E709480A49242201F093F9ABE7E0
:1017E00006480749242201F08DF99FE732C00920FD
:1017F00034C0092035C0092037C00920C89700002F
:10180000E0970000036870B51B69002101220446BF
:101810009847431C05460ED0236820461B690021CB
:10182000022298472368064629461B692046002263
:101830009847304670BD70BD084A094B10B402602D
:1018400003F58071002453F8042B824208BF43F84B
:10185000044C8B42F7D15DF8044B70476898000048
:10186000400E00100A4A0B4B10B503F58071044678
:101870000260002053F8042B944208BF43F8040C84
:101880008B42F7D1204601F0D7FD204610BD00BFA6
:1018900068980000400E001002480349034A00F017
:1018A00061BE00BF9C11001002C0092003C00920C6
:1018B000F0B50E4685B03549054602F084FC20B9E6
:1018C000334B1B6863B105B0F0BD2846314902F0C7
:1018D0007AFC78B92E4B1B6843B1012005B0F0BDEE
:1018E0000190FFF7D9FF019805B0F0BDFFF7D4FFD5
:1018F0000120E8E72846284902F065FC10B3274B91
:10190000002402E00134402C21D053F8040F0028B9
:10191000F8D12B783A2B32D0294602A800F000FFEC
:1019200002A800F04FFF90B102A800F033FF88B189
:1019300002A800F039FF03464BB1194AE01C42F8F7
:101940002430C0E7124B1B68ABB10220BBE74FF05D
:10195000FF30B8E702A800F011FF05460028F6D0D6
:10196000036802A89F6800F007FF32460146284638
:10197000B8470346E0E7FFF78FFF0220A3E72846BA
:10198000084902AA02F0B0FB029BD5E74898000084
:101990000410001058980000509800003C0E0010F1
:1019A000400E001090980000022808B50BDD084B8F
:1019B000C21E53F82200002143F8221028B1036808
:1019C0005B68984708BD002008BD4FF0FF3008BD98
:1019D000400E0010022870B50C4616460FDC0E4B68
:1019E0001B680BB9FFF758FFA51936B114F8011B96
:1019F0000A4800F007FDAC42F8D1304670BD084BF4
:101A0000033853F8200018B103681B68984770BD6D
:101A10004FF0FF3070BD00BF041000109C1100108B
:101A2000400E0010022810B50C4609DC0D4B1B6857
:101A30008BB10D4800F090FC01232070184610BDBA
:101A40000A4B033853F8200040B103689B6898475D
:101A50000346184610BDFFF71FFFEAE74FF0FF33BC
:101A6000ECE700BF041000109C110010400E0010A5
:101A7000022808B508DD074B033853F8200028B1C9
:101A80000368DB68984708BD012008BD4FF0FF30B0
:101A900008BD00BF400E0010022808B508DD074B46
:101AA000033853F8200028B103681B69984708BD24
:101AB000002008BD4FF0FF3008BD00BF400E0010F1
:101AC000022808B504D84FF400534B60002008BD2D
:101AD00001F070FD092303604FF0FF3008BD00BF27
:101AE00008B5012001F06CFD704700BF704700BFD2
:101AF00008B5FFF7FBFFFFF7F7FFBDE80840FEF76B
:101B0000B9BB00BF074A13681844EFF30881884245
:101B100002D2106018467047034B0C221A604FF037
:101B2000FF30704760010010A41100100A4C08B586
:101B300023680546986801F05FFE2368D86801F0C5
:101B40005BFE01F007F820B905B9FEE7FFF7D4FD09
:101B5000FBE701F0B9F8F7E7C4010010002102F03B
:101B600099B900BF0649074A074B9A42BEBF51F8D0
:101B7000040B42F8040BF8E7044880470448004788
:101B800094A30000C80000101002001041160000CD
:101B900021010000FEE7FEE7FEE7FEE7FEE7FEE7C5
:101BA000FEE7FEE7FEE7FEE72DE9F04F414B83B08D
:101BB0005F689E685D6A9C6A0FB3DFF800913E4AD9
:101BC0009B464FF0010A05E00AFA08F3FF1ACBF82A
:101BD0000C3014D0B7FA87F8C8F11F085FFA88F8FC
:101BE00059F828000028EFD0136801210192984786
:101BF0000AFA08F3FF1A019ACBF80C30EAD1D6B1F1
:101C0000DFF8B890DFF8B0A0DFF8A88005E0012386
:101C1000BB40F61AC8F80C300DD0B6FA86F7C7F1FB
:101C20001F07FFB259F827000028F0D0DAF800307B
:101C300002219847EBE7E5B1DFF88080DFF8789084
:101C40001C4F04E00123B340ED1AFB6211D0B5FA3A
:101C500085F6C6F11F06F6B20F2EF3D806F1200363
:101C600058F823000028EDD0D9F80030012198471A
:101C7000E8E7DCB1114FDFF840800E4E04E00123AD
:101C8000AB40E41AF36211D0B4FA84F5C5F11F0534
:101C9000EDB20F2DF3D805F1200357F823000028EB
:101CA000EDD0D8F8003002219847E8E703B0BDE84E
:101CB000F08F00BF80800240400F0010440F0010E2
:101CC000F8B51E464B1C044623D0134B21F01F00D1
:101CD00001F01F05114F21F05F0199423A6084E83D
:101CE000210004D00E4800F023FF94E821000A4BA5
:101CF0000C49984218BF20350B4BA560152043F8BE
:101D00002560FFF77FFC094B4FF400121A6000209A
:101D1000F8BD0846F8BD00BF00C00920400F001004
:101D2000A0980000A91B0000440F001000E100E093
:101D30008268024B002143F822107047440F0010C4
:101D400030B40368314CA34232D0314DAB4212D093
:101D500001293ED0A34220D0AB420AD143680121E1
:101D600001FA03F3002A41D12A4A516B21EA030305
:101D7000536330BC70474368012404FA03F3254CD5
:101D80000129E362EED1436801219940214B002AE9
:101D900036D01A6B0A431A63EBE74368012101FA54
:101DA00003F3E2B11B4A30BC51690B4353617047E6
:101DB0004368012404FA03F3164C0129E360F0D1CF
:101DC000436801219940134BAAB11A690A431A6169
:101DD000CFE7A342F4D0AB42D5D030BC70470D4A18
:101DE00030BC516921EA030353617047094A516BC2
:101DF0000B435363BDE71A6922EA01021A61B8E78F
:101E00001A6B22EA01021A63B3E700BF00C009207F
:101E100040C009208080024008B5154A9368C3F38A
:101E20004203012B1ED0022B19D1124B596F0131E5
:101E30000AD0D3F88010986F086093F8A61019B9EB
:101E4000516821F001015160186F0A4B48B193F8B5
:101E5000A6302BB10021084A1368984708BD08BD79
:101E600008BD08BD034A106F0028F9D01946F2E7F3
:101E7000008009400C1000100810001070B50368B5
:101E8000294CA34249D041DD284CA3422AD004F575
:101E90008044A34244D1264C08263ABB01290BD0EA
:101EA0004568244AC5EBC50502EBC50494F83550D6
:101EB00094F83620EA4214D1012202FA01F5D1F158
:101EC000010138BF002102FA01F15C6824EA05042F
:101ED0005C6003685B68194203D1B240164BC3F8DB
:101EE000802070BD154C0726002AD7D0012505FAA1
:101EF00001F176B2304605FA06F65A680A435A608E
:101F00002146FFF77FFB0C4B1E6070BDA4F580449B
:101F1000A34205D10A4C0526BFE70A4C0626BCE7BA
:101F200000242646B9E700BF0000014000800940B8
:101F3000AD1F00000C10001000E100E0191E0000B1
:101F4000491F00001920000008B5154A9368C3F323
:101F50004203012B1DD0022B18D1124B59680131BD
:101F600009D019699868086093F8361019B9516852
:101F700021F00101516018680A4B48B193F83630DE
:101F80002BB10021084A1368984708BD08BD08BD59
:101F900008BD044A10680028F9D01946F2E700BFCE
:101FA00000C000400C1000100810001008B5174ABF
:101FB0009368C3F34203012B21D0022B1CD1144B95
:101FC000D3F8AC1001310BD0D3F8B810D3F8B0006F
:101FD000086093F8DE1019B9516821F001015160D1
:101FE000D3F8A8000A4B48B193F8DE302BB100219A
:101FF000084A1368984708BD08BD08BD08BD044AD3
:10200000D2F8A8000028F8D01946F1E700C009402E
:102010000C1000100810001008B5154A9368C3F39F
:102020004203012B1DD0022B18D1124BD96B013169
:1020300009D0996C186C086093F86E1019B9516842
:1020400021F001015160986B0A4B48B193F86E3052
:102050002BB10021084A1368984708BD08BD08BD88
:1020600008BD044A906B0028F9D01946F2E700BF7A
:10207000000001400C100010081000102DE9F04F76
:102080000368884A8DB0934209908B4600F3F08034
:10209000854A934200F0F78040F3D780834A934209
:1020A00000F09F8002F5804293420CD1804AD2F822
:1020B000AC1121F44021C2F8AC11D2F8AC1141F4BA
:1020C0008021C2F8AC117B494FEA0B1209680891D4
:1020D000089CB1FBF2F102FB114289B20491002A83
:1020E00000F0B1806100A2000123029400240B9152
:1020F0000A9201930F4603920693CDF81CB05E46F8
:102100000594DDF81CA001994FF00008D146CDB22E
:10211000DA46C346002F79DB0399DDF804E0B1FB12
:10212000F9F464090134C4F34F04DE44002C66D191
:102130000124B8F1000F67D104FB0EF0029AC00031
:10214000B2FBF0F00130CAEB500001F018FAB042D7
:1021500006DA504564D00646CDF8148004940695FE
:102160000BF1010B5FFA8BF84545D144D2D8019CA5
:10217000D3460F2C4FF000035DD0029A0899019CC2
:102180000A440B99013402920194039A0F440A9C69
:1021900007992244594403920791002BB1D0069B22
:1021A000059A099C42EA03102368C0B2197B049C7B
:1021B00041F08001C4F30722099C19732368049934
:1021C0001A7123685FFA81FB83F800B0236883F8F3
:1021D000280023681A7B02F07F021A730DB0BDE855
:1021E000F08F334AD2F8AC1121F44031C2F8AC116F
:1021F000D2F8AC1141F48031C2F8AC1163E7B8F108
:10220000000F99D0012C97D8022495E7B7FBF9F479
:102210002409DDF804E00134C4F34F04DE4485E70B
:102220000494019CD3460F2C0695CDF81480564695
:102230004FF00103A1D10599069A099C41EA0210C9
:10224000C0B22368B2E71020B0E7A2F58042934203
:102250007FF439AF164AD2F8A81121F0C001C2F8B4
:10226000A811D2F8A81141F04001C2F8A8112AE73C
:102270009B221148114900F045FC099C0A4A236839
:1022800093427FF409AF0A4AD2F8A81121F44071B1
:10229000C2F8A811D2F8A81141F48071C2F8A811AF
:1022A00011E700BF00C00940000001400080094064
:1022B00000C00F405C010010709900008C99000074
:1022C000F8B55D1E012D07460C46164604D9154883
:1022D0001549FB2200F016FC053C032C1CD8042EEB
:1022E00014D8013EF6B2032E0DD8104B082253F835
:1022F00026301B01DBB244EA8504144323433A68C9
:10230000DBB21373F8BD00231A46F4E70848064908
:10231000FE2200F0F7FBE4E706480349FC2200F048
:10232000F1FBDCE7F49900008C990000F4980000C0
:10233000409A00001C9A0000436810B40448054C01
:10234000C3EBC30344F8332001605DF8044B7047CE
:10235000081000100C10001000B50268137DDB0798
:10236000FCD543680949C3EBC30301EBC3035968B8
:1023700010780131C0B207D0596904335B680B6033
:10238000536843F0010353605DF804FB0C10001028
:1023900038B54368184AC3EBC303DB00D1180446C1
:1023A000C869013011D018331A445368151D013320
:1023B00016D06A696B6812681A4204D12368187DC6
:1023C000C0F3801038BD002038BD23681B7D9B06FC
:1023D0000CD491F834000F288CBF0020012038BDA8
:1023E000064807492C2200F08DFBE2E7002381F824
:1023F0003430012038BD00BF0C100010C897000019
:10240000C49A000038B504460D462046FFF7C0FFC9
:102410000028FAD02368EDB21D706268054BC2EB4C
:10242000C20203EBC20393F83420013283F8342054
:1024300038BD00BF0C1000102DE9F04F0446454D8B
:10244000006883B0A8420E469046994643D065681E
:10245000002301932A46DFF808A1EF00C2EBC20275
:10246000781B4FF0000E0AEBC0000AEBC20C4FF0D5
:10247000FF33C36143607146724620468CF835E0F5
:10248000FFF7FCFC16B903B0BDE8F08F32494046B7
:1024900000F0F2FB31498346484600F0EDFBB21EE6
:1024A000012A38D9012EEED1B8F1FF3FEBD02949EE
:1024B000226807208B45107215D1019B9BB11B7CB4
:1024C000019A254943F040034046137403B0BDE828
:1024D000F04F00F09FBB037C656803F03F0303747B
:1024E00062680190B7E77D1B0AEBC50041460430E6
:1024F000002200F065FB62680125C2EBC2020AEB14
:10250000C20320462A46002183F8355003B0BDE8B7
:10251000F04FFFF7B3BCB9F1FF3F09D00D4A90422D
:102520000CD0781B0AEBC00049461C3000F014FBAD
:10253000032EA8D1B8F1FF3FB9D1A4E7019B002B2E
:10254000EFD01A7C484642F080021A74034900F02A
:1025500061FBEDE700000140D0980000AC9B00005B
:102560000C1000102DE9F0470F460546084661495A
:10257000164600F08FFB60490446304600F08AFBA7
:102580000146204600F066FB411C044600F0AB808B
:102590005A4B2860984200F0838053D9584B984298
:1025A00076D003F58043984206D1564BD3F8C42029
:1025B00042F00072C3F8C4204FF0010984F808907B
:1025C0002B684FF00008C3F8048028464FF41651DA
:1025D000FFF754FD42464B4628460821FFF770FEA0
:1025E0003846444900F016FB3046434900F012FBE0
:1025F0007A1C03D03846414600F02EFC731C03D0F1
:102600003046002100F028FC3C4B9C4250D025D99C
:102610003B4B9C4264D003F580439C424BD1032347
:102620006B603949C3EBC3034FF0FF34284601EB1D
:10263000C305224623466C60EC610021BDE8F047EB
:10264000FFF7FABEA3F580439842B5D12D4BD3F8DE
:10265000C42042F00802C3F8C420ADE7A3F58043CC
:102660009C4228D1284E4FF0FF3400216960224659
:10267000234628467460F461FFF7DEFE234B0124F5
:1026800029461C6022480822BDE8F04701F036BB0D
:102690001C4BD3F8C42042F08072C3F8C4208BE7EF
:1026A000184BD3F8C42042F01002C3F8C42083E7CB
:1026B00001236B60B5E76B681349C3EBC3034FF0AD
:1026C000FF3601EBC30732463346284600217E60C1
:1026D000FE61FFF7B1FE0F4B9C42CFD0BDE8F08703
:1026E00002236B609DE70C480C495C2200F00AFA5B
:1026F0002C6061E7409B000004990000000001404D
:102700000080094000C00F400C10001004100010A1
:102710009C11001000C00040309B00008C9900000C
:1027200038B50023036043600A7804462F2A01D09D
:10273000204638BD4A78002AFAD0481C20604A78E2
:102740002F2A14D0B2B18D1C194600E052B1256079
:102750002A782B462F2A01F1010105F10105F5D157
:102760000133236000F0A4FD6060204638BD1946A7
:102770000346F5E71146F5E70068704710B50446D3
:10278000406828B100F0B2FD012801D1606810BD99
:10279000002010BD406808B528B100F0A7FDD0F1B9
:1027A000010038BF002008BD10B50446406830B1B4
:1027B00000F09CFD18B9606808B1043810BD002015
:1027C00010BD00BF4068003018BF0120704700BF37
:1027D00010B5044A044640F81C2BFFF7A9FA20461E
:1027E00010BD00BFD89B000010B5054B044640F853
:1027F0001C3BFFF79DFA204600F01EFE204610BD50
:10280000D89B0000012905D0022902D1443000F0F4
:10281000B9BD7047283000F0B5BD00BF124B70B590
:102820000025044680E828000E468560C5600561E5
:1028300045618561C561056245622946283000F021
:102840009BFD294604F1440000F096FD31462346E5
:10285000064A04F11C00FFF733FA201D314600F050
:102860007BF9204670BD00BFD89B00000528000002
:10287000014B0360704700BFE89B000010B5034B9D
:102880000446036000F0D8FD204610BDE89B000020
:10289000F0B5DFF848C004460F4883B04FF0080E8B
:1028A000251D00264FF0FF37C4F800C0C4F808E02B
:1028B000206166602846E660009700F003FC284629
:1028C0003346A168E26800F05DFB2846216900F00C
:1028D00091FB204603B0F0BD40420F00E89B000092
:1028E00070B5094D04462B6883420BD0061D304657
:1028F000A168E268002300F045FB3046216900F042
:1029000079FB2C6070BD00BFEC10001010B4044CBB
:10291000002323608160C2605DF8044BFFF7E0BFD5
:10292000EC100010024B002201611A60FFF7D8BFC3
:10293000EC10001038B50C460546FFF7D1FF281DF6
:102940002146BDE8384000F05FBC00BF0020704762
:10295000F8B58E18B1420F4605460FD00C4601E07F
:10296000A64209D02B6828465B6A14F8011B9847D9
:102970000130F5D1E01BF8BDF01BF8BD0020F8BD1B
:10298000F8B58E18B1420F4605460FD00C4603E04D
:1029900004F8010BA64207D02B6828469B6A98478B
:1029A000431CF5D1E01BF8BDF01BF8BD0020F8BDBD
:1029B00000207047002070470020704700207047BB
:1029C00010B5074B044603F108023C3380E80C00C5
:1029D000406900F05BFE204600F08AFC204610BDF6
:1029E000F89B0000A0F10400FFF7EABF10B5044611
:1029F000FFF7E6FF204600F01FFD204610BD00BF98
:102A0000A0F10400FFF7F2BF10B584B0044600F057
:102A10009FFC0B4B002203F108013C3384E80A00C1
:102A2000626101A82246074901F03AFB064901A864
:102A300001F00AF86061FFF791F8204604B010BD7C
:102A4000F89B000090980000409C000000F0D4BC6F
:102A5000A0F14800FFF7FABF00F0D2BCA0F1480097
:102A6000FFF7FABF38B504461D4600F09FFC294623
:102A700004F14800FFF7C8FF054B204603F10801A9
:102A800003F1200254332160A264E36438BD00BF27
:102A9000489C000038B50025056045608560044607
:102AA00000F04AFAA5606060204638BD036810B5A2
:102AB000044623B900F040FA01236060236010BD92
:102AC00010B50446006818B100F036FA6368C01A01
:102AD000A36800221844A060226010BD38B50446E7
:102AE0000068A56818B100F027FA6368C01A284486
:102AF00038BD00BF10B5044600F01EFA0023606028
:102B0000A36010BD10B5084B0446186882B00B4690
:102B1000C06806490092224600F0A0FF02B0BDE85E
:102B20001040FEF7E9BD00BFC4010010A89C0000E2
:102B30000FB400B5064A83B004AB126853F8041B07
:102B4000D0681A46019301F0BDFF012000F038FD66
:102B5000C401001000F0C4B838B50D46044600F0BA
:102B600015F9013509D02046002100F02BF9204647
:102B70000321BDE8384000F021B938BD38B50D4615
:102B8000044600F003F901350FD0236801330DD05E
:102B90002369626820461A60012100F013F920467B
:102BA0000221BDE8384000F009B938BD02480349A8
:102BB0002422FFF7A7FFEBE7C8970000E09700008B
:102BC00070B50D461646044600F0E0F8013514D005
:102BD0002368013312D066B9236962681A602046FF
:102BE000012100F0EFF820460221BDE8704000F01E
:102BF000E5B8E36862681A60F1E770BD034804490C
:102C00002422FFF77FFF002EE6D0F2E7C8970000EE
:102C1000E0970000431C10B5044618D00B68581C00
:102C200004D10FE051F80C3F5A1C0BD09C42F9D153
:102C30002046896800F0E8F820460221BDE81040EF
:102C400000F00AB90248BDE81040FFF771BF10BD9F
:102C5000DC9C0000884208B50AD0431C07D0013133
:102C600006D00448FFF764FF4FF0FF3008BD084668
:102C700008BD00BFF09C00000B685A1C04D107E09F
:102C800051F80C3F5A1C03D08342F9D14868704771
:102C90001846704708B5431C0CD00B685A1C04D169
:102CA00009E051F80C3F5A1C05D09842F9D1486808
:102CB000411C00D008BD0348FFF73AFF4FF0FF303A
:102CC000F8E700BF049D000030B585B018246D46BC
:102CD00020462946ABBE0446204605B030BD00BFA5
:102CE000024B186800F00100704700BFF0ED00E0F3
:102CF00070B500F041F90E4C0E4E236873B11D689B
:102D000000F01AF9281A00280CDC216832688B6858
:102D10002360002AF2D048689047EEE7BDE8704093
:102D200000F022B92368BDE87040186800F012B9BD
:102D3000F0100010F410001038B5054600F0FCF853
:102D4000044600F0F9F8001BA842FAD338BD00BFD2
:102D50004FF47A7303FB00F0FFF7EEBF431C10B58E
:102D6000044608D02046002100F04EF804F01F046D
:102D70000120A04010BD034803491522FFF7C2FE01
:102D8000F0E700BF449D0000589D000038B50446A0
:102D90004B1C0D4621600FD00846FFF7DFFF25F0E2
:102DA0001F0505F1180105F11C0205F1140360600F
:102DB000A560E1602261636138BD00BF006800F07A
:102DC0004BB800BF38B50368044601330D4610D038
:102DD00045B1012D05D1A368626819680A431A60DC
:102DE00038BD38BDA36861681A6822EA01021A601A
:102DF00038BD034803492C22FFF784FEE8E700BFF3
:102E0000C8970000589D000038B5431C04460D4685
:102E100017D004F16040A0F51C2000F00F035B0008
:102E200003229A409D4003099B0003F1804303F570
:102E30003033196821EA02021A601A6815431D60CE
:102E400038BD034803491522FFF75CFEE1E700BFE8
:102E5000449D0000C09D000038B5431C04460D464B
:102E60002CD004F16040A0F51C2000F01F04C5F335
:102E7000800202FA04F443099B0003F1804303F546
:102E80003033996E21EA04019966996E0C439C6671
:102E90009AB900F00F035B0003229A4005FA03F38E
:102EA0000009800000F1804000F53030016C21EA1B
:102EB00002020264026C1343036438BD02480349F2
:102EC0002022FFF71FFECCE7449D0000C09D0000BC
:102ED000134A38B513680BBB12490124D1F8C4500A
:102EE0001460114A114845F40005C1F8C450136735
:102EF000036801F1437101F5F45103319B08A1FB13
:102F000003039B0C013B022151600420D36008495C
:102F10005460FEF777FB074B10221A6038BD00BFE4
:102F2000F810001000C00F40004009405C01001084
:102F3000F12C000000E100E008B5044B1B680BB960
:102F4000FFF7C6FF024B986808BD00BFF8100010DD
:102F500000400940034B98615A6942F001025A61EE
:102F6000704700BF00400940024B5A6922F001023D
:102F70005A61704700400940014B01221A607047B6
:102F8000004009402DE9F0410468074660680E469C
:102F9000043920F002000C2915469846606001D8DB
:102FA000032A05D9114812496422FFF7ABFD3C689A
:102FB000206805F00103013E46EAC316C5F340054B
:102FC000000C46EA85150004284320606368B8F1C8
:102FD000000F23F00D030CBF002204221343636093
:102FE000636843F002036360BDE8F0819C9E0000CB
:102FF000D89E0000F8B503682E4A5C68934224F01E
:10300000020407465C6042D002F5B022934230D001
:10301000294B08461E6806F0FFF90224054603E026
:103020000234B4F5807F40D0B6FBF4F006F0F4F93A
:10303000294606F0F9FA4FF07C5106F039F905F00F
:10304000ABFD00F005FA06F095F8FF28E8DC3B68D8
:1030500001381C611A6822F47F0222F47F421A6050
:103060001A6842EA002018605A6842F002025A6068
:10307000F8BD124BD3F8AC2122F44062C3F8AC2166
:10308000D3F8AC2142F48062C3F8AC21C0E70B4B0B
:10309000D3F8A82122F44012C3F8A821D3F8A8211C
:1030A00042F48012C3F8A821B2E70548BDE8F84011
:1030B000FFF73EBD000003405C01001000C00F4060
:1030C000409F00002DE9F04F044683B00846894632
:1030D000444990461F460C9EFFF7DCFD42490346DB
:1030E00040460193FFF7D6FD404905463846FFF7B5
:1030F000D1FD3F4983463046FFF7CCFD019B294671
:1031000082461846FFF7A6FD514605465846FFF78A
:10311000A1FD01462846FFF79DFD421C20605AD0C4
:10312000344B98424FD003F5B023984223D0731C00
:103130002BD02046002201230821FFF723FF204641
:103140002D49FFF757FF236848465A68254942F042
:1031500002025A60FFF75EFD40462349FFF75AFD21
:1031600038462249FFF756FD2149304603B0BDE8F5
:10317000F04FFFF74FBD03F5E823D3F8C42042F426
:103180000012C3F8C420731CD3D10022134620467A
:103190000821FFF7F7FE20461749FFF72BFF2368AA
:1031A00048465A680F4942F002025A60FFF732FD62
:1031B00040460D49FFF72EFD0C49384603B0BDE8E7
:1031C000F04FFFF727BD0D4BD3F8C42042F48062C7
:1031D000C3F8C420ABE70A480A494422FFF792FC2F
:1031E00020689DE77C9F0000249E0000609E0000F8
:1031F000B89F00000000034040420F0000C00F4095
:10320000689F0000D89E00000368DA689007FCD52C
:103210009960DA685207FCD598687047094A836854
:10322000026053B1084B1A68824201D106E01A4687
:1032300053688342FBD143685360704742681A6009
:10324000704700BF00A00000FC1000100C4A83680B
:1032500010B50446026053B10A4B1A68904201D17E
:103260000AE01A4653689C42FBD1636853602046CB
:1032700000F0E2F8204610BD42681A60F7E700BF90
:1032800000A00000FC100010074B10B400240273D3
:10329000816080E8180019B1044B1A681860426018
:1032A0005DF8044B704700BF00A00000FC10001048
:1032B0000D4B70B51C6806460D4614B912E06468E3
:1032C00084B1A36831462A461846002BF7D000F097
:1032D0008CFF0028F3D1A06800F07FFFA842EED158
:1032E000204670BD002070BDFC100010007B7047B0
:1032F00010B5074B044603F108023433226040F84E
:10330000043FFFF78BFF2046FEF796FA204610BDDC
:1033100008A00000A0F10400FFF7EABF094B10B5B8
:1033200003F1080204463433226040F8043FFFF7FB
:1033300075FF2046FEF780FA204600F07DF8204613
:1033400010BD00BF08A00000A0F10400FFF7E6BF19
:10335000074B10B50022044640F8043BFFF794FFEA
:10336000044B204603F10802343384E80C0010BDFE
:103370006898000008A00000002280E80600826132
:10338000704700BF08B5036801460BB1984708BDF8
:10339000406810B18B690831984708BDC1EBC10185
:1033A00000EB81000C30FFF7EDBF00BFF8B5104B0C
:1033B0000025044680E828000E46856029460C302A
:1033C0001746FFF7D9FF294604F12800FFF7D4FF7D
:1033D000251D4FF4165331463A4663642846FFF7DD
:1033E000C1F8284622460349FEF7A6FF2046F8BD4D
:1033F000A09700009D3300000430FEF7ADBF00BF72
:1034000010B504300C46FEF7FDFF204610BD00BF8E
:1034100010B5002814BF04460124204600F050FCDB
:1034200030B9044B1B680BB900F0A2F89847F4E7D9
:1034300010BD00BF0011001008B100F049BC70477A
:1034400003460846194600F0A5B8FFF7E1BF0000A3
:103450002DE9F84FC1F30A57A7F2FF36132E0246A3
:103460000B4604460D4689468A4680461CDC002EE3
:1034700040DB3D4F374107EA010C5CEA000C18D0F5
:1034800037A3D3E9002305F029FA0022002305F031
:1034900067FE28B1002D42DB2AEA07094FF0000839
:1034A00040464946BDE8F88F332E06DDB6F5806FFD
:1034B00031D010461946BDE8F88FA7F2134C4FF0F3
:1034C000FF3B2BFA0CFB1BEA000FF2D024A3D3E93D
:1034D000002305F003FA0022002305F041FE002836
:1034E000DED0002D22DB28EA0B08D14640464946B3
:1034F000BDE8F88F1AA3D3E9002305F0EFF9002205
:10350000002305F02DFE0028CAD0002D1CDB4FF053
:103510000008C146C4E705F0E1F9BDE8F88F4FF4B3
:10352000801A4AFA06F606EB050AB5E7142E14D0FF
:10353000C7F586670123033703FA07F717EB04087B
:1035400028BF05EB030ACEE725F00042074B2243D4
:1035500018BF99464FF00008A2E705F1010AC2E73B
:103560009C7500883CE4377EFFFF0F000000F0BF31
:1035700008B5062000F046FD0120FEF7D7FA002826
:10358000B8BF40427047014600200246034602F0A1
:10359000E5BA000070B5064C06460D4613462CB140
:1035A00031462A46022002F0D9FA70BD204670BD8D
:1035B0005D5B0000014B1868704700BFC40100103C
:1035C00008B5074B044613B1002102F023FB054B5D
:1035D0001868836A03B198472046FEF7A7FA00BF30
:1035E000155C0000ACA0000070B505460C4609B99A
:1035F000002070BD18B183690BB900F063F9204B4E
:103600009C4201D16C6808E01E4B9C4201D1AC6821
:1036100003E01D4B9C4208BFEC68B4F90C30002B52
:10362000E6D02846214600F0BDF8236B064633B1AC
:103630002846216A98470028B8BF4FF0FF36A38973
:103640001B0603D52846216900F06AFB616B41B176
:1036500004F14403994202D0284600F061FB0023A4
:103660006363A16C21B1284600F05AFB0023A364D8
:1036700000F092F90023A38100F08FF9304670BD6D
:1036800048A0000068A0000088A00000024B01468E
:103690001868FFF7A9BF00BFC40100108A892DE98F
:1036A000F041054610070C4657D44B68002B02DC4E
:1036B0000B6C002B18DDE66AB6B102F480520023D1
:1036C00092B22F682B600AB1626D10E0216A284621
:1036D0000123B047411C024609D12B683BB11D2B89
:1036E00001D0162B46D12F600020BDE8F081A389C0
:1036F0005B0705D56368D21A636B0BB1236CD21AD2
:10370000E66A2846216A0023B047461CA28905D1F3
:103710002B681BB11D2B01D0162B19D10023636020
:103720002369D104236004D5421C01D12B6803B95D
:103730006065616B2F600029D6D004F14403994283
:1037400002D0284600F0ECFA00206063BDE8F0816A
:1037500042F04002A281BDE8F0810E69002EC3D084
:103760000B680E60C6EB030893070CBF4B69002380
:103770008B6012E0A3894FF0FF3043F04003A38138
:10378000BDE8F081A76A2846216A32464346B84719
:103790000028EFDD0644C0EB0808B8F1000FF1DCAB
:1037A000A2E7000038B50B6905460C46DBB118B13D
:1037B00083690BB900F086F80C4B9C4201D16C6810
:1037C00008E00B4B9C4201D1AC6803E0094B9C42E2
:1037D00008BFEC68B4F90C302BB128462146BDE88F
:1037E0003840FFF75BBF002038BD00BF48A0000095
:1037F00068A0000088A00000014620B9044B0549DC
:10380000186800F0CDB9044B1868FFF7CBBF00BFB4
:10381000ACA00000A5370000C4010010F8B50746B1
:1038200000F1480494B1A5686668013E0CD4AB89E8
:10383000012B07D9B5F90E30013303D0384629469C
:10384000FFF7B0FF6835F0E72468EBE7F8BD00004C
:10385000002310B5044603604360836081814366A2
:10386000C28103614361836119465C30082200F024
:103870004EFA054B24626362044BA362044BE3627D
:10388000044B236310BD00BF3D41000063410000B5
:103890009B410000BF41000070B54B1E68255D4391
:1038A0000E4605F1740100F07FFA044640B1002194
:1038B00080E842000C30A06005F1680200F027FAB1
:1038C000204670BD836910B5044633BB8364C3646E
:1038D0000365124B124A1B688262984204BF01239F
:1038E000836100F01FF86060204600F01BF8A060C4
:1038F000204600F017F80421E06000226068FFF71E
:10390000A7FFA06809210122FFF7A2FFE0681221AA
:103910000222FFF79DFF0123A36110BDACA00000B0
:103920001D380000F8B51B4B07461E68B36913B974
:103930003046FFF7C7FF4836B4687368013B04D4CC
:10394000B4F90C5075B16834F8E733682BB93846D0
:103950000421FFF7A1FF306008B13668ECE70C23C3
:103960003B60F8BD4FF6FF73E3810123A3816566D9
:103970002560A560656025616561A56104F15C0055
:103980002946082200F0C3F96563A563A564E564D0
:103990002046F8BDACA000007047704738B5084D10
:1039A000084C641BA41005EB840524B155F8043DB4
:1039B000013C9847F9E7BDE8384005F0E7BE00BF95
:1039C0000C02001010020010F7B50F46114601AAB4
:1039D000054602F0E5FF064608B9002029E0284622
:1039E000FFF7A0FF04460028F7D028463946019A81
:1039F0004FF4DB7300F02CFA002806DA0025FFF7FD
:103A0000CBFFA581FFF7C9FFE7E70B4BE0816362BE
:103A10000A4BA681A3620A4B2462E362094B23632B
:103A2000F30505D5284621460022022300F028F898
:103A3000204603B0F0BD00BF3D41000063410000DF
:103A40009B410000BF4100000A4603490346086845
:103A50001946FFF7B9BF00BFC40100100EB403B58B
:103A6000014603AB054853F8042B0068019300F0AE
:103A700025FF02B05DF804EB03B07047C4010010ED
:103A800000F000B82DE9F8430C4691461E46054665
:103A900018B183690BB9FFF715FF3E4B9C4201D16A
:103AA0006C6808E03C4B9C4201D1AC6803E03B4BA6
:103AB0009C4208BFEC68A38903F48473B3F5847F48
:103AC00003D128462146FFF76DFED4F82C801D2334
:103AD000B8F1000F2BD0012E04D0022E2BD056B3FC
:103AE000162324E028462146FFF75CFEA28902F453
:103AF000805292B20AB1606D05E0216A28463346D1
:103B0000C047411C14D0A3895A0706D56368C01A60
:103B1000636B4BB1236CC01A06E01B0704D5236806
:103B200013B122699B1A18448144002603E02B60DC
:103B30004FF0FF372BE023691BB92846214600F0E0
:103B400073F828462146FFF72DFE07460028EFD1DF
:103B50002846216A4A463346C0470130E8D0616BA7
:103B600041B104F14403994202D0284600F0D8F84C
:103B700000236363236900212360A389616023F428
:103B80000263A38104F15C00082200F0C0F838460B
:103B9000BDE8F88348A0000068A0000088A00000ED
:103BA0002DE9F8438046894600F14804002694B187
:103BB000A5686768013F0CD4AB89012B07D9B5F91B
:103BC0000E30013303D040462946C84706436835C6
:103BD000F0E72468EBE73046BDE8F88370B50E4B9C
:103BE0000E4D0024ED1AAD101E46AC4204D056F81E
:103BF000242090470134F8E705F0C2FD084D094B39
:103C00000024ED1AAD101E46AC4204D056F8242014
:103C100090470134F8E770BD040200100402001060
:103C20000C02001004020010F0B58B8991B09E07C1
:103C300005460C4625D4B1F90E10002908DAA389EF
:103C4000002713F0800F14BF40264FF480660DE06C
:103C500001AA02F0DDFE0028F1DB029F4FF480662E
:103C600007F47047B7F500514F424F41284631469F
:103C700000F09AF860B9A3899A051DD443F00203B5
:103C8000A38104F14703236023610123636113E0EF
:103C90000A4BAB62A389206043F08003A3812061BB
:103CA00066614FB12846B4F90E1002F0C3FE18B198
:103CB000A38943F00103A38111B0F0BD1D380000BA
:103CC000024B0146186800F06FB800BFC401001035
:103CD000024B0146186800F023B800BFC401001071
:103CE00010B5C9B202449042034605D01C78013099
:103CF0008C42F8D1184610BD002010BD10B500232D
:103D0000934203D0CC5CC4540133F9E710BD0244A4
:103D10000346934202D003F8011BFAE77047000004
:103D200030B500293CD051F8042C0B1F1D49002A46
:103D3000B8BF9B180A680C4612B95A600B6030BDB8
:103D400093420DD219685818904203D15A58114421
:103D5000426819605A60236030BD994203D80A4610
:103D600051680029F9D1146815199D420AD11B68C0
:103D70002344D0188842136012D1086803441360AA
:103D80004B680CE002D90C23036030BD18681C1886
:103D90008C4203D10C684968204418605960536014
:103DA00030BD00BF0811001070B5CD1C25F0030513
:103DB00008350C2D38BF0C25002D06463FDB8D4203
:103DC0003DD3214B1C6818462146A1B10B685B1BF3
:103DD0000ED40B2B03D90B60CC18CD501FE08C42B6
:103DE00002D1626802601AE04B6863600C4616E01C
:103DF0000C464968E9E7154C23681BB9304600F0CA
:103E000039F820602946304600F034F8431C01465A
:103E100015D0C41C24F0030484420AD1256004F1A7
:103E20000B00231D20F00700C31A0BD05A42E250AA
:103E300070BD3046611A00F01DF80130EED10C2340
:103E40003360002070BD00BF081100100411001085
:103E500038B5074C054600202060084611461A4632
:103E6000FDF726FD431C02D1236803B12B6038BD4A
:103E7000A411001038B5064C0023054608462360FF
:103E8000FDF740FE431C02D1236803B12B6038BD0F
:103E9000A411001000290CBF022200224FF48063FD
:103EA00000F000B82DE9F0411E463D4B04461D6868
:103EB0000F46904625B1AB6913B92846FFF702FDBE
:103EC000384B9C4201D16C6808E0374B9C4201D1D1
:103ED000AC6803E0354B9C4208BFEC68B8F1020FB8
:103EE00059D8002E57DB28462146FFF75BFC0023FC
:103EF0006360A361A3891B0603D528462169FFF7E8
:103F00000FFFA389B8F1020F23F08303A38112D01E
:103F100037BB002E08BF4FF480663046FFF7D0FE57
:103F20000746C8B94FF48060FFF7CAFE074688B954
:103F30004FF0FF3000E00020A38943F00203A3818B
:103F40000023A36004F1470323602361012363611D
:103F5000BDE8F0814FF48066A38943F08003A3811C
:103F6000B8F1010F05D1A38943F00103A381734286
:103F7000A3610F4BAB62A389276003F0080080B2F6
:103F80002761666148B113F0030F18BF0026A660D1
:103F90000020BDE8F0814FF0FF30BDE8F08100BFA8
:103FA000C401001048A0000068A0000088A0000024
:103FB0001D3800001F2938B505460C4604D91623C4
:103FC00003604FF0FF3038BD426C12B152F821301F
:103FD0004BB9284600F030F8224601462846BDE895
:103FE000384000F017B8012B0AD0591C03D1162312
:103FF0000360012038BD002542F824502046984730
:10400000002038BD024B01461868FFF7D3BF00BF40
:10401000C401001038B5074C002305460846114678
:10402000236005F0A5FB431C02D1236803B12B607C
:1040300038BD00BFA411001005F092BB0CB430B520
:10404000164B0C1E9DB01D6804DA8B232B604FF0BD
:10405000FF301EE04FF40273ADF8143014BF04F1CA
:10406000FF332346049307934FF6FF7302900690A5
:10407000ADF81630284621AB02A9209A019300F032
:1040800027F9431CBCBF8B232B6014B1029B002279
:104090001A701DB0BDE8304002B07047C401001076
:1040A0000EB400B54FF402719CB0ADF814106FF06F
:1040B0000041049107914FF6FF711DABADF816104A
:1040C000084953F8042B02900690086802A901934E
:1040D00000F0FEF8029B00221A701CB05DF804EBA1
:1040E00003B07047C40100100EB430B59CB01FACD3
:1040F0004FF4017254F8045BADF81420029006905E
:1041000000F06BF80B4B03900B9300230F93149369
:104110004FF6FF73ADF81630074B079002A91868E9
:104120002A462346019400F019FA1CB0BDE830403D
:1041300003B070475F410000C401001010B50C4689
:10414000B1F90E1003F0EAF8002803DB636D0344B5
:10415000636510BDA38923F48053A38110BD0020A3
:1041600070472DE9F0411D468B890746DB050C465B
:10417000164605D5B1F90E100022022302F06EFC9E
:10418000A389384623F48053A381B4F90E10324634
:104190002B46BDE8F04101F061BC10B50C46B1F909
:1041A0000E1002F05BFC431CA38903D123F480535F
:1041B000A38110BD43F48053A381606510BDB1F9A4
:1041C0000E1001F08BBD10F8012B11F8013B012AF4
:1041D00028BF9A42F7D0D01A7047034613F8012B34
:1041E000002AFBD1181A0138704770B58AB10B4606
:1041F00005461C7810F8016B0131B44201D1012A47
:1042000003D128781B78C01A70BD013A002CEED17A
:10421000F7E7104670BD2DE9F0478D688146AB4247
:104220000C4692461F4643D38B8913F4906F3DD0C2
:10423000266809690222C1EB0608666906EB460694
:1042400096FBF2F608F101023A44964238BF164650
:104250005B050FD53146FFF7A7FD054698B12169EB
:104260004246FFF74BFDA38923F4906343F080039C
:10427000A38113E0324603F02AF8054670B9484698
:104280002169FFF74DFD0C23C9F80030A3894FF0D9
:10429000FF3043F04003A381BDE8F08725616661EC
:1042A0004544C8EB06062560A6603D46AF4200D2F5
:1042B0003D462A462068514602F0E2FBA3680020F2
:1042C0005B1BA36023681D442560BDE8F0870000E8
:1042D0002DE9F0439DB003938B8907461C060D46DC
:1042E00016460CD50B6953B94021FFF75DFD2860D8
:1042F000286110B90C233B60C7E040236B610023A9
:10430000099320238DF8293030238DF82A30334645
:104310001C4613F8012B1AB9B4EB06090FD002E0C2
:10432000252AF5D1F8E73846294632464B46FFF7AD
:1043300072FF013000F0A480099B4B44099323785D
:10434000002B00F09D8000234FF0FF320493079371
:10435000059206938DF853301A9304F101094D4EDE
:104360004C46304621780522FFF7BAFC09F10109D5
:10437000049B28B1861B0120B04003430493EEE761
:10438000D90644BF20228DF853201A0744BF2B22A0
:104390008DF8532022782A2A02D0079B21460EE06E
:1043A000039A111D12680391002A01DB079204E0B1
:1043B000524243F002030792049301340AE00C4690
:1043C00022780131303A092A03D80A2000FB03235E
:1043D000F5E7079323782E2B19D163782A2B09D17F
:1043E000039B02341A1D1B680392002BB8BF4FF0C9
:1043F000FF330BE0611C00230C4622780131303A78
:10440000092A03D80A2000FB0323F5E70593224E6F
:10441000217830460322FFF763FC30B1861B402031
:10442000B040049B01340343049321781B480622C7
:10443000661C8DF82810FFF753FC88B1184B33B970
:10444000039B073323F007030833039314E003AB04
:104450000093384604A92A46124B00F0D5FB07E02A
:1044600003AB0093384604A92A460E4B00F04CFEDD
:10447000B0F1FF3F804603D0099B4344099346E7D0
:10448000AB895B0601D4099801E04FF0FF301DB005
:10449000BDE8F083B0A00000B6A00000BAA0000004
:1044A000094C00001742000038B54B1C144602D1DD
:1044B0004FF0FF3038BD9389CDB223F020039381B4
:1044C000536B526883B1A36B9A4207DA23685A1E72
:1044D000226003F8015C636801331FE0214600F0AD
:1044E0008BF90028F2D0E3E72169236851B18B42B0
:1044F00008D913F8010CA84204D1013B0132236012
:10450000626038BDE36304F1440363630323A36380
:104510002346226403F8465F236001236360284634
:1045200038BD10B50C46496B69B104F1440399429A
:1045300001D0FFF7F5FB236C00206063636013B1CB
:10454000E36B236010BD23694FF0FF30236000232D
:104550006360A38943F02003A38110BD2DE9F047D8
:10456000ADF5247D01930023469347939D4B0DF1B8
:104570000C09A2939C4B07460C469046CDF820911F
:10458000A39398F80050002D00F0248197490B6800
:104590008A462B445A7802F0080202F0FF03EAB17F
:1045A0006368002B10DD2368DAF8002019780A44CC
:1045B000527815070ED5479A013301324792626847
:1045C0002360013A6260EBE7A39B38462146984797
:1045D0000028E8D008F10106B046D2E7252D08F101
:1045E00001064FD14593439398F801302A2B03D10C
:1045F0001023439308F1020631783546A1F13003C8
:10460000092B06F1010606D8459B0A2202FB03137B
:10461000303B4593F0E7DFF8DC8103224046FFF7AB
:104620005FFB40B1C8EB0008012000FA08F0439B93
:104630003546034343936E1C2D78672D0FD8652DA7
:1046400078D25B2D54D005D8002D00F0C580252DE3
:1046500018D071E0632D57D0642D3FD06CE0702DE1
:1046600032D007D86E2D55D03AD8692D64D10023A9
:10467000449339E0752D31D0782D29D0732D5BD13D
:1046800002233FE06368002B0DDD23681A78AA42FD
:1046900040F0A080013362682360479B013A0133F8
:1046A0006260479398E7A39B3846214698470028C5
:1046B000EBD04698002800F08F80A38913F0400FBC
:1046C00018BF4FF0FF3089E0439B43F02003439332
:1046D000439B43F400734393102302E00A2300E05A
:1046E00008236E2D449301DC03230BE0042309E02F
:1046F0003146484602F046FE439B064643F04003DF
:104700004393012349931BE0439B43F040034393AE
:104710000023F7E7439AD0063FF55EAF12F0010F92
:10472000019A479B02F104010191126814BF1380A2
:10473000136051E70523E5E7032349930A234493D4
:104740006368002B03DD439B590611D518E0A39B3A
:104750003846214698470028F5D0AAE7479A013203
:1047600047926268013A002A626013DD01332360D8
:104770002368DAF8002019780A4452781207EDD439
:10478000499B022B0DDC384643A9224601AB00F0C1
:10479000BBFF19E0A39B3846214698470028E7D085
:1047A00087E7042B06DC384643A9224601AB01F01B
:1047B0000BF809E00E4B002B3FF40EAF384643A92F
:1047C000224601AB00F0B4FD012803D002287FF49B
:1047D00003AF6EE7469801E04FF0FF300DF5247D02
:1047E000BDE8F087A944000023450000C80100107F
:1047F00031530000B6A000002DE9F0410C46496B92
:1048000004F1440399421AD14FF48061FFF7CCFAC6
:1048100018B94FF0FF30BDE8F0814FF48063A36317
:1048200094F84630606380F8FF3394F8453000F226
:10483000FD30437094F844300370206012E0A66BA2
:1048400077003A4602F043FD05460028E1D000EB30
:104850000608404629463246FFF750FAC4F8008061
:104860006563A7630020BDE8F081936810B5013B44
:10487000002B936005DA9469A34208DBCBB20A2BC4
:1048800005D01368581C10601970C8B210BDBDE87F
:10489000104001F08FB8F8B505460E461446D718FB
:1048A000BC4208D0284614F8011B3246FFF7DDFF52
:1048B000431CF5D100E00020F8BD00002DE9F043D5
:1048C0009DB00D4617460393064618B183690BB990
:1048D000FEF7F8FF734B9D4201D1756808E0724BFB
:1048E0009D4201D1B56803E0704B9D4208BFF56859
:1048F000AB8918070AD52B6943B1002309932023FC
:104900008DF8293030238DF82A3038E0304629469A
:1049100001F0B6F80028F0D04FF0FF30BEE0039A67
:10492000111D12680391002A70DB0792013423786D
:104930002E2B7DD05E4F217838460322FFF7D0F929
:1049400030B1C71B4020B840049B0134034304939B
:10495000217858480622671C8DF82810FFF7C0F907
:10496000002800F08980544B002B7CD1039B073337
:1049700023F0070308330393099B434409933B4601
:104980001C4613F8012B1AB9B4EB07090ED002E04C
:10499000252AF5D1F8E7304629463A464B46FFF737
:1049A0007AFF013075D0099B4B4409932378002B83
:1049B0006FD000234FF0FF320493079305920693C4
:1049C0008DF853301A9304F101093C4F4C46384698
:1049D00021780522FFF784F909F10109049B28B128
:1049E000C71B0120B84003430493EEE7D90644BF38
:1049F00020228DF853201A0744BF2B228DF8532014
:104A000022782A2A8BD0079B214605E0524243F0A8
:104A100002030792049389E70C4622780131303A69
:104A2000092A03D80A2000FB0323F5E707937EE752
:104A300063782A2B09D1039B02341A1D1B68039249
:104A4000002BB8BF4FF0FF330BE0611C00230C4676
:104A500022780131303A092A03D80A2000FB0323C7
:104A6000F5E7059366E703AB0093304604A92A46B1
:104A7000134B00F0C9F807E003AB0093304604A9DC
:104A80002A460F4B00F040FBB0F1FF3F80467FF419
:104A900073AFAB895B063FF53FAF09981DB0BDE82A
:104AA000F08300BF48A0000068A0000088A00000BC
:104AB000B6A00000BAA00000094C0000B0A00000A1
:104AC0009748000030B51346044A05460C46106866
:104AD00029462246BDE83040FFF7F0BEC401001071
:104AE0002DE9F047002B88B014461D46109E129900
:104AF000139F05DA05F100431D4614462D2300E0FF
:104B000000230B70149B23F0200ABAF1460F04D047
:104B1000BAF1450F03D1013601E0032300E002237F
:104B20008DE8C80006AB039307AB049322462B46DF
:104B300001F076F9BAF1470F804602D1119BDB07ED
:104B400025D5BAF1460F08EB06090FD198F80030C9
:104B5000302B09D1204629460022002304F0D8FA40
:104B600010B9C6F101063E603B68994420462946CB
:104B70000022002304F0CCFA08B1CDF81C90079B6A
:104B80004B4504D25A1C079230221A70F7E7079B54
:104B90004046C8EB0302159B1A6008B0BDE8F087D9
:104BA00073B50346002903F8022B03DA49421A467B
:104BB0002D2401E01A462B24092944701BDD0DF138
:104BC00006040A2691FBF6F506FB1511092D01F1E5
:104BD0003001234604F801192946F2DC05F13001C1
:104BE00003F8011D0DF107018B420AD213F8011BD6
:104BF00002F8011BF6E730241A46214402F8024B62
:104C00005970101A02B070BD2DE9F04F8FB00C46EC
:104C100016461F46DDF86090054601F01BFFD0F8F0
:104C200000A05046FFF7D9FA00230C93D9F80030C2
:104C30000990073323F0070303F10802D3E90001C9
:104C400094F81880C9F80020C4E9120102F078FB3A
:104C50000128D4E9120117D10022002304F062FADE
:104C600010B12D2384F84330904B914AB8F1470F8F
:104C70008CBF9146994603232361236823F00403E4
:104C800023604FF0000B86E002F05AFB236848B91E
:104C9000884A8949B8F1470F8CBF8946914603225B
:104CA0002261EBE7626828F0200B511C01D106223B
:104CB00004E0BBF1470F02D10AB9012262606068CB
:104CC00043F480618DE80300D4E912230DF12B0039
:104CD00002900BA803900CA805900020216006907C
:104CE000CDF810802846FFF7FBFEBBF1470F814649
:104CF0000B9909D1C81C02DB6368994230DDA8F129
:104D000002085FFA88F802E0B8F1650F12D801399D
:104D1000424604F150000B91FFF742FF0C9A834684
:104D20008318012A236102DC2268D2072DD50133C2
:104D300023612AE0B8F1660F14D10029636807DD0A
:104D4000216113B92268D0071CD501330B4418E048
:104D500013B92268D20701D5023312E0012310E013
:104D60004FF067080C9A914205DB23682161D80750
:104D700008D54B1C05E00029D4BFC1F10203012373
:104D800013442361A1654FF0000B9DF82B3013B144
:104D90002D2384F843300097284621460DAA334638
:104DA00000F040F9013002D14FF0FF3036E12368C6
:104DB0005A0504D4284631464A46236908E1B8F129
:104DC000650F40F2CB80D4E912010022002304F0E9
:104DD0009FF900282AD028463146384A0123B8478F
:104DE0000130E1D00C9B0B9A9A4207DB2368D8076D
:104DF00004D423689B0700F1F880FDE02846314683
:104E00005246099BB8470130CED04FF000080C9BAA
:104E1000013B9845EDDA2846314604F11A02012398
:104E2000B8470130C0D008F10108F0E70B9B002B18
:104E300028DC28463146214A0123B8470130B3D047
:104E40000B9B23B90C9B13B92368D907D1D52846EE
:104E500031465246099BB8470130A5D04FF00008B3
:104E60000B9B28465B429845314608DA04F11A024A
:104E70000123B847013097D008F10108F0E74A460E
:104E80000C9BA5E0A36D0C9A9A42B4BF93469B4637
:104E9000BBF1000F02DC4FF000081CE02846314651
:104EA0004A465B46B8470130F5D17DE7C1A0000016
:104EB000C5A00000C9A00000CDA000001AA10000FC
:104EC0002846314604F11A020123B84701303FF465
:104ED0006BAF08F10108A36D2BEAEB729A1A9045AB
:104EE000EEDB09EB03080B9A0C9B9A420FDB23685D
:104EF000DA070CD40C9B0B9A9944C8EB09099B1A4E
:104F00009945A8BF9946B9F1000F08DC0FE0284683
:104F100031465246099BB8470130EBD144E7284659
:104F2000314642464B46B84701303FF43DAF4FF063
:104F300000080AE02846314604F11A020123B84766
:104F400001303FF431AF08F101080B9B0C9A29EABC
:104F5000E971D31A5B1A9845ECDB4AE70C9A012AEF
:104F600001DCDB0739D5284631464A460123B847DC
:104F700001303FF419AF284631465246099BB847E5
:104F800001303FF411AFD4E912010022002304F0F4
:104F9000BFF810B14FF0000811E00C9B28463146D5
:104FA00009F10102013B1CE02846314604F11A02D6
:104FB0000123B84701303FF4F7AE08F101080C9B1C
:104FC000013B9845F0DB2846314604F150025B4630
:104FD000B84701307FF40DAFE6E6284631464A4631
:104FE0000123B8470130EED1DEE64FF00008E26859
:104FF0000D9BD31A984505DBE0680D9B9842B8BF1E
:1050000018460BE02846314604F119020123B8473F
:1050100001303FF4C9AE08F10108E8E70FB0BDE880
:10502000F08F00BF2DE9F84315461F468A680B69CB
:1050300006469A42A8BF13462B6091F843200C46BF
:10504000DDF820800AB101332B602368990602D570
:105050002B6802332B60236813F006091DD094F8E7
:1050600043302268003318BF012392061FD5E11890
:10507000302081F843005A1C94F845102244023332
:1050800082F8431013E03046394604F11902012337
:10509000C047013007D009F10109E2682B68D31A33
:1050A0009945F0DBDBE74FF0FF30BDE8F883304691
:1050B000394604F14302C0470130F4D023682A681E
:1050C00003F00603E168042B08BFC2EB0105236966
:1050D000A2680CBF25EAE57500259A42C4BFC3EB60
:1050E0000203ED184FF00009A9450ADA30463946A7
:1050F00004F11A020123C0470130D4D009F101099B
:10510000F2E70020BDE8F8832DE9FF470E7E8046D8
:105110006E2E0C4691469A460C9D01F1430000F01C
:10512000A58011D8632E22D009D8002E00F0AF80C0
:10513000582E40F0BF8081F845607B4A4FE0642ED6
:105140001ED0692E1CD0B5E0732E00F0A48009D8C3
:105150006F2E2BD0702E40F0AD800B6843F02003F3
:105160000B6038E0752E21D0782E34D0A2E02B6869
:1051700001F142071A1D1B682A6081F842309DE048
:1051800022682B6812F0800F03D01A1D2A601D6858
:1051900005E05106F9D51A1D2A60B3F90050002D1B
:1051A00039DA2D236D4284F8433034E022682B68CD
:1051B00012F0800F03D01A1D2A601D6804E0520609
:1051C000F9D51A1D2A601D88237E574A6F2B14BFFC
:1051D0000A2308231BE07823544A84F845302368C7
:1051E000296813F0800F01F104062E6001D00D68CC
:1051F00002E05F06FBD50D88DE0744BF43F02003C5
:1052000023601DB9236823F02003236010230021AD
:1052100084F8431001E0444A0A236668002EA66021
:1052200003DB216821F00401216005B96EB104F1AE
:105230004201B5FBF3F603FB1655555D0F4601F829
:1052400001593546002EF4D100E00746082B0AD15B
:105250002368DD0707D5626823699A4203DC30239F
:1052600007F8013C013FC01B20612CE009682B6856
:1052700011F0800F626904D0191D29601B681A6043
:1052800005E04906F8D5191D29601B681A8000231E
:105290002361074617E02B681A1D2A601F683846ED
:1052A000FEF79BFF63682061984288BF23612369F2
:1052B000636005E004F1420784F842600123236142
:1052C000002384F84330CDF800A04046214603AACD
:1052D0004B46FFF7A7FE013002D14FF0FF301FE031
:1052E000404649463A462369D0470130F5D0236805
:1052F0009B0705D4E068039B9842B8BF18460FE0AF
:105300000025E268039BD31A9D42F3DA40464946E2
:1053100004F119020123D0470130DED00135F0E756
:1053200004B0BDE8F08700BFD1A00000E2A00000FB
:105330002DE9F04F16468A6887B00293531EB3F5E5
:10534000AE7F07460C4606D96FF4AE731A4440F29E
:105350005D138B6000E000222368A04643F4F063F5
:105360004FF0000B48F81C3B4546DA46CDF814B028
:10537000CDF810B0D946CDF80CB0A168002900F0E6
:10538000E98033681B78492B75D016D8392B0DD896
:10539000312B3ED22D2B45D002D82B2B42D0D9E039
:1053A0002E2B00F09780302B23D0D3E0452B00F03C
:1053B0009A80462B7CD0412B0CE0652B00F093802B
:1053C0000AD8542B7AD002D84E2B33D0C2E0592BB6
:1053D0007AD0612B49D0BDE06E2B2BD004D8662B40
:1053E00066D0692B47D0B5E0742B67D0792B6BD092
:1053F000B0E0206810F4807F0BD020F080002060A7
:1054000009F10109002A00F08C800131013AA16004
:1054100087E00AEB0B01002940F09C80216821F411
:10542000C07105E02168080640F1948021F08001F8
:10543000216074E0BAF1000F0ED1B9F1000F0ED166
:10544000216801F4E060B0F5E06F08D121F4F0616B
:1054500021604FF0010A62E0BAF1020F5DD0BBF1AA
:10546000010F20D0BBF1040F1CE0BAF1010F71D184
:105470004FF0020A53E0BBF1000F0ED1B9F1000F5B
:105480006BD1216801F4E060B0F5E06F69D121F4DF
:10549000F06121604FF0010B41E0BBF1030F02D03E
:1054A000BBF1050F56D10BF1010B5FFA8BFB36E018
:1054B000BBF1020F4ED14FF0030B30E0BBF1060FF2
:1054C00048D14FF0070B2AE0BBF1070F42D14FF054
:1054D000080B24E0216888053CD521F42071216067
:1054E000CDF80C901BE0216801F4A060B0F5806F4E
:1054F00004D048052ED5B9F1000F32D0880504D468
:1055000003980595C0EB0900049021F4F06141F483
:10551000C07121604FF0000901E04FF0030A2B70C9
:105520000135A368013BA3602369013323617368DC
:10553000013B002B736003DD3368013333601CE7EC
:105540000192D4F88031384631469847019A0028B4
:105550003FF413AFB9F1000F03D0236823F4807335
:1055600023600AF1FF3ABAF1010F10D845452A46E7
:105570000BD9D4F87C3112F8011C384632469847D2
:105580002369013D013B2361F0E70126B5E00BF102
:10559000FF33062B2CD8BBF1020F1AD9ABF1030B4A
:1055A0005FFA8BFBAA46CBEB050CE2450ED0D4F894
:1055B0007C311AF8011D3846CDF804C032469847B0
:1055C0002369DDF804C0013B2361EEE7CBEB050561
:1055D0000EE045452A46D8D9D4F87C3112F8011C92
:1055E0003846324698472369013D013B2361F0E785
:1055F0002368DA052ED55B050ED545452A46C4D964
:10560000D4F87C3112F8011C384632469847236999
:10561000013D013B2361F0E715F8011C2369652971
:1056200003F1FF3305F1FF3A23610DD045290BD07B
:10563000D4F87C31384632469847236915F8021C65
:10564000013BA5F1020A2361D4F87C313846324689
:1056500098475546266816F010064DD12E702368DF
:1056600003F4C063B3F5806F05D10399C1EB09035F
:105670005A4263B915E0049D9DB1059D3246691CEF
:1056800038460A2302F004FD049D421B059D04F2E6
:105690006F139D4228BF04F5B77528461949FEF7D8
:1056A000FFFC41460022384601F0D6FE2268029DEA
:1056B00012F0020F804689462B6802D01A1D2A601C
:1056C00006E0029D12F0040F03F104022A6003D0E9
:1056D0001B68C3E900890BE01D6801F031FE10B9B9
:1056E00001F082FE03E04046494603F08BFD28604E
:1056F000E3680133E36000E00026304607B0BDE810
:10570000F08F00BFF3A000002DE9F04115468A6834
:1057100080460C4632B98A69002A14BF4FF0FF3226
:1057200001228A602268D10603D41A68111D19600B
:1057300017680026A069E0B923680136DA0604D4A8
:105740002B6801371B7807F8013C2A686B68013227
:105750002A60A268013B013A6B60A26012B3002B81
:10576000E8DCD4F880314046294698470028E1D04B
:1057700018E0012807D12A6811786269525C002A72
:10578000DAD1EEB10EE0022801D04EB10AE02A686B
:105790000C49127809680A4452781307CCD5F4E70B
:1057A00001280DD0236813F0100305D1E2680132FF
:1057B000E260A26902B13B70236900201E442661A9
:1057C000BDE8F081C80100102DE9F04F89B00C460A
:1057D000984605A9734B02918146164693E8070047
:1057E000029B83E80700A3696F4A7049032B08BF37
:1057F0001146A36803915A1EB2F5AE7F07D96FF424
:10580000AE7503EB050A40F25D13A36001E04FF0B3
:10581000000A236804F11C0743F450632360BB466D
:105820000023326805A951F8230011780222019360
:10583000FEF756FA019B002835D0012B0BD1626888
:105840002AB908226260226842F40072226022684B
:1058500022F4A0620BE0022B0AD1226802F4C0619C
:10586000B1F5007F1FD11021616042F48072226087
:10587000A268511EA160B2B132680BF10105511C42
:10588000316012788BF800207268013A002A726049
:1058900008DC0193D4F88021484631469047019BAB
:1058A000002841D1AB460133032BBAD163680BB951
:1058B0000A23636063683E496069C91A01F062FDAA
:1058C0005D464FF0000BA368002B2FD03268606953
:1058D0001178405C50B3302921680BD1080509D5F7
:1058E0000BF1010BBAF1000F0BD001330AF1FF3AB3
:1058F000A36006E021F4106121601378013505F8FA
:10590000013C7368013B002B736003DD3368013396
:10591000336005E0D4F8803148463146984728B9CD
:10592000A368013BA360CEE74FF0000B2368D905C5
:105930000DD5BD4209D915F8011CD4F87C31484673
:105940003246984705F1FF3A5546BD4226D02268B7
:1059500012F010021BD12A70636848463946039E34
:10596000B0472268D8F8003012F0200F07D1D207D4
:1059700005D51A1DC8F800201B68188004E01A1D00
:10598000C8F800201B681860E3680133E3602369EE
:10599000ED1BAB445B442361002000E0012009B013
:1059A000BDE8F08FF8A00000918000009581000014
:1059B00014A1000070B50E461446054618B183695F
:1059C0000BB9FDF77FFF224B9C4201D16C6808E0C8
:1059D000204B9C4201D1AC6803E01F4B9C4208BFA6
:1059E000EC68A369A360A3891A0709D523693BB1B1
:1059F00023692068F6B2C01A636998420FDB08E099
:105A00002846214600F03CF80028F1D04FF0FF3046
:105A100070BD28462146FDF7C5FE0028F6D1A368D3
:105A20000130013BA36023685A1C22601E70636929
:105A3000984204D0A389DB0707D50A2E05D1284652
:105A40002146FDF7AFFE0028E0D1304670BD00BF13
:105A500048A0000068A0000088A0000038B5074CEE
:105A6000054600202060084611461A46FBF7B2FFA3
:105A7000431C02D1236803B12B6038BDA411001070
:105A8000324B70B51D6806460C4625B1AB6913B99B
:105A90002846FDF717FF2E4B9C4201D16C6808E0A9
:105AA0002C4B9C4201D1AC6803E02B4B9C4208BFBD
:105AB000EC68A28993B2190720D4DD0605D4092326
:105AC00042F040023360A2813BE0580712D5616B7F
:105AD00041B104F14403994202D03046FEF720F967
